{"project/contracts/OpenQuest.sol":{"OpenQuest":{"abi":[{"inputs":[],"stateMutability":"nonpayable","type":"constructor"},{"inputs":[{"internalType":"address","name":"sender","type":"address"},{"internalType":"uint256","name":"tokenId","type":"uint256"},{"internalType":"address","name":"owner","type":"address"}],"name":"ERC721IncorrectOwner","type":"error"},{"inputs":[{"internalType":"address","name":"operator","type":"address"},{"internalType":"uint256","name":"tokenId","type":"uint256"}],"name":"ERC721InsufficientApproval","type":"error"},{"inputs":[{"internalType":"address","name":"approver","type":"address"}],"name":"ERC721InvalidApprover","type":"error"},{"inputs":[{"internalType":"address","name":"operator","type":"address"}],"name":"ERC721InvalidOperator","type":"error"},{"inputs":[{"internalType":"address","name":"owner","type":"address"}],"name":"ERC721InvalidOwner","type":"error"},{"inputs":[{"internalType":"address","name":"receiver","type":"address"}],"name":"ERC721InvalidReceiver","type":"error"},{"inputs":[{"internalType":"address","name":"sender","type":"address"}],"name":"ERC721InvalidSender","type":"error"},{"inputs":[{"internalType":"uint256","name":"tokenId","type":"uint256"}],"name":"ERC721NonexistentToken","type":"error"},{"inputs":[{"internalType":"address","name":"owner","type":"address"}],"name":"OwnableInvalidOwner","type":"error"},{"inputs":[{"internalType":"address","name":"account","type":"address"}],"name":"OwnableUnauthorizedAccount","type":"error"},{"inputs":[],"name":"ReentrancyGuardReentrantCall","type":"error"},{"anonymous":false,"inputs":[{"indexed":true,"internalType":"address","name":"agent","type":"address"},{"indexed":false,"internalType":"bool","name":"authorized","type":"bool"}],"name":"AgentAuthorized","type":"event"},{"anonymous":false,"inputs":[{"indexed":true,"internalType":"address","name":"owner","type":"address"},{"indexed":true,"internalType":"address","name":"approved","type":"address"},{"indexed":true,"internalType":"uint256","name":"tokenId","type":"uint256"}],"name":"Approval","type":"event"},{"anonymous":false,"inputs":[{"indexed":true,"internalType":"address","name":"owner","type":"address"},{"indexed":true,"internalType":"address","name":"operator","type":"address"},{"indexed":false,"internalType":"bool","name":"approved","type":"bool"}],"name":"ApprovalForAll","type":"event"},{"anonymous":false,"inputs":[{"indexed":true,"internalType":"address","name":"previousOwner","type":"address"},{"indexed":true,"internalType":"address","name":"newOwner","type":"address"}],"name":"OwnershipTransferred","type":"event"},{"anonymous":false,"inputs":[{"indexed":true,"internalType":"uint256","name":"questId","type":"uint256"},{"indexed":true,"internalType":"address","name":"user","type":"address"},{"indexed":false,"internalType":"bytes32","name":"proofHash","type":"bytes32"},{"indexed":false,"internalType":"uint256","name":"timestamp","type":"uint256"}],"name":"QuestCompleted","type":"event"},{"anonymous":false,"inputs":[{"indexed":true,"internalType":"uint256","name":"questId","type":"uint256"},{"indexed":false,"internalType":"string","name":"title","type":"string"},{"indexed":false,"internalType":"enum OpenQuest.QuestDifficulty","name":"difficulty","type":"uint8"},{"indexed":false,"internalType":"enum OpenQuest.QuestCategory","name":"category","type":"uint8"}],"name":"QuestCreated","type":"event"},{"anonymous":false,"inputs":[{"indexed":true,"internalType":"uint256","name":"questId","type":"uint256"},{"indexed":true,"internalType":"address","name":"user","type":"address"},{"indexed":false,"internalType":"enum OpenQuest.RewardType","name":"rewardType","type":"uint8"},{"indexed":false,"internalType":"uint256","name":"amount","type":"uint256"}],"name":"RewardClaimed","type":"event"},{"anonymous":false,"inputs":[{"indexed":true,"internalType":"address","name":"from","type":"address"},{"indexed":true,"internalType":"address","name":"to","type":"address"},{"indexed":true,"internalType":"uint256","name":"tokenId","type":"uint256"}],"name":"Transfer","type":"event"},{"inputs":[{"internalType":"address","name":"","type":"address"}],"name":"agents","outputs":[{"internalType":"bool","name":"","type":"bool"}],"stateMutability":"view","type":"function"},{"inputs":[{"internalType":"address","name":"to","type":"address"},{"internalType":"uint256","name":"tokenId","type":"uint256"}],"name":"approve","outputs":[],"stateMutability":"nonpayable","type":"function"},{"inputs":[{"internalType":"address","name":"owner","type":"address"}],"name":"balanceOf","outputs":[{"internalType":"uint256","name":"","type":"uint256"}],"stateMutability":"view","type":"function"},{"inputs":[{"internalType":"uint256","name":"questId","type":"uint256"},{"internalType":"address[]","name":"users","type":"address[]"},{"internalType":"bytes32[]","name":"proofHashes","type":"bytes32[]"}],"name":"batchRecordCompletions","outputs":[],"stateMutability":"nonpayable","type":"function"},{"inputs":[{"internalType":"uint256","name":"questId","type":"uint256"}],"name":"claimReward","outputs":[],"stateMutability":"nonpayable","type":"function"},{"inputs":[{"internalType":"uint256","name":"","type":"uint256"},{"internalType":"address","name":"","type":"address"}],"name":"completions","outputs":[{"internalType":"address","name":"user","type":"address"},{"internalType":"uint256","name":"questId","type":"uint256"},{"internalType":"uint256","name":"timestamp","type":"uint256"},{"internalType":"bytes32","name":"proofHash","type":"bytes32"},{"internalType":"bool","name":"verified","type":"bool"},{"internalType":"bool","name":"rewardClaimed","type":"bool"},{"internalType":"uint256","name":"rewardTokenId","type":"uint256"}],"stateMutability":"view","type":"function"},{"inputs":[{"internalType":"string","name":"title","type":"string"},{"internalType":"string","name":"description","type":"string"},{"internalType":"string","name":"protocol","type":"string"},{"internalType":"address","name":"targetContract","type":"address"},{"internalType":"enum OpenQuest.QuestDifficulty","name":"difficulty","type":"uint8"},{"internalType":"enum OpenQuest.QuestCategory","name":"category","type":"uint8"},{"internalType":"enum OpenQuest.RewardType","name":"rewardType","type":"uint8"},{"internalType":"uint256","name":"rewardAmount","type":"uint256"},{"internalType":"address","name":"rewardToken","type":"address"},{"internalType":"uint256","name":"duration","type":"uint256"},{"internalType":"uint256","name":"maxCompletions","type":"uint256"}],"name":"createQuest","outputs":[{"internalType":"uint256","name":"","type":"uint256"}],"stateMutability":"nonpayable","type":"function"},{"inputs":[{"internalType":"uint256","name":"questId","type":"uint256"}],"name":"deactivateQuest","outputs":[],"stateMutability":"nonpayable","type":"function"},{"inputs":[],"name":"fundContract","outputs":[],"stateMutability":"payable","type":"function"},{"inputs":[{"internalType":"uint256","name":"tokenId","type":"uint256"}],"name":"getApproved","outputs":[{"internalType":"address","name":"","type":"address"}],"stateMutability":"view","type":"function"},{"inputs":[],"name":"getContractStats","outputs":[{"internalType":"uint256","name":"totalQuests","type":"uint256"},{"internalType":"uint256","name":"totalParticipants","type":"uint256"},{"internalType":"uint256","name":"totalCompletions","type":"uint256"},{"internalType":"uint256","name":"totalBadgesMinted","type":"uint256"}],"stateMutability":"view","type":"function"},{"inputs":[{"internalType":"uint256","name":"limit","type":"uint256"}],"name":"getLeaderboard","outputs":[{"internalType":"address[]","name":"topUsers","type":"address[]"},{"internalType":"uint256[]","name":"completionCounts","type":"uint256[]"}],"stateMutability":"view","type":"function"},{"inputs":[{"internalType":"uint256","name":"questId","type":"uint256"}],"name":"getQuest","outputs":[{"components":[{"internalType":"uint256","name":"id","type":"uint256"},{"internalType":"string","name":"title","type":"string"},{"internalType":"string","name":"description","type":"string"},{"internalType":"string","name":"protocol","type":"string"},{"internalType":"address","name":"targetContract","type":"address"},{"internalType":"enum OpenQuest.QuestDifficulty","name":"difficulty","type":"uint8"},{"internalType":"enum OpenQuest.QuestCategory","name":"category","type":"uint8"},{"internalType":"enum OpenQuest.RewardType","name":"rewardType","type":"uint8"},{"internalType":"uint256","name":"rewardAmount","type":"uint256"},{"internalType":"address","name":"rewardToken","type":"address"},{"internalType":"uint256","name":"startTime","type":"uint256"},{"internalType":"uint256","name":"endTime","type":"uint256"},{"internalType":"bool","name":"active","type":"bool"},{"internalType":"uint256","name":"completionCount","type":"uint256"},{"internalType":"uint256","name":"maxCompletions","type":"uint256"}],"internalType":"struct OpenQuest.Quest","name":"","type":"tuple"}],"stateMutability":"view","type":"function"},{"inputs":[{"internalType":"address","name":"user","type":"address"}],"name":"getUserBadges","outputs":[{"internalType":"uint256[]","name":"","type":"uint256[]"}],"stateMutability":"view","type":"function"},{"inputs":[{"internalType":"uint256","name":"questId","type":"uint256"},{"internalType":"address","name":"user","type":"address"}],"name":"getUserCompletion","outputs":[{"components":[{"internalType":"address","name":"user","type":"address"},{"internalType":"uint256","name":"questId","type":"uint256"},{"internalType":"uint256","name":"timestamp","type":"uint256"},{"internalType":"bytes32","name":"proofHash","type":"bytes32"},{"internalType":"bool","name":"verified","type":"bool"},{"internalType":"bool","name":"rewardClaimed","type":"bool"},{"internalType":"uint256","name":"rewardTokenId","type":"uint256"}],"internalType":"struct OpenQuest.Completion","name":"","type":"tuple"}],"stateMutability":"view","type":"function"},{"inputs":[{"internalType":"address","name":"user","type":"address"}],"name":"getUserStats","outputs":[{"components":[{"internalType":"uint256","name":"totalCompleted","type":"uint256"},{"internalType":"uint256","name":"totalRewardsClaimed","type":"uint256"},{"internalType":"uint256","name":"currentStreak","type":"uint256"},{"internalType":"uint256","name":"lastCompletionTime","type":"uint256"},{"internalType":"uint256[]","name":"badgeTokenIds","type":"uint256[]"}],"internalType":"struct OpenQuest.UserStats","name":"","type":"tuple"}],"stateMutability":"view","type":"function"},{"inputs":[{"internalType":"uint256","name":"questId","type":"uint256"},{"internalType":"address","name":"user","type":"address"}],"name":"hasCompletedQuest","outputs":[{"internalType":"bool","name":"","type":"bool"}],"stateMutability":"view","type":"function"},{"inputs":[{"internalType":"address","name":"owner","type":"address"},{"internalType":"address","name":"operator","type":"address"}],"name":"isApprovedForAll","outputs":[{"internalType":"bool","name":"","type":"bool"}],"stateMutability":"view","type":"function"},{"inputs":[],"name":"name","outputs":[{"internalType":"string","name":"","type":"string"}],"stateMutability":"view","type":"function"},{"inputs":[],"name":"owner","outputs":[{"internalType":"address","name":"","type":"address"}],"stateMutability":"view","type":"function"},{"inputs":[{"internalType":"uint256","name":"tokenId","type":"uint256"}],"name":"ownerOf","outputs":[{"internalType":"address","name":"","type":"address"}],"stateMutability":"view","type":"function"},{"inputs":[{"internalType":"uint256","name":"","type":"uint256"}],"name":"participants","outputs":[{"internalType":"address","name":"","type":"address"}],"stateMutability":"view","type":"function"},{"inputs":[{"internalType":"uint256","name":"","type":"uint256"}],"name":"quests","outputs":[{"internalType":"uint256","name":"id","type":"uint256"},{"internalType":"string","name":"title","type":"string"},{"internalType":"string","name":"description","type":"string"},{"internalType":"string","name":"protocol","type":"string"},{"internalType":"address","name":"targetContract","type":"address"},{"internalType":"enum OpenQuest.QuestDifficulty","name":"difficulty","type":"uint8"},{"internalType":"enum OpenQuest.QuestCategory","name":"category","type":"uint8"},{"internalType":"enum OpenQuest.RewardType","name":"rewardType","type":"uint8"},{"internalType":"uint256","name":"rewardAmount","type":"uint256"},{"internalType":"address","name":"rewardToken","type":"address"},{"internalType":"uint256","name":"startTime","type":"uint256"},{"internalType":"uint256","name":"endTime","type":"uint256"},{"internalType":"bool","name":"active","type":"bool"},{"internalType":"uint256","name":"completionCount","type":"uint256"},{"internalType":"uint256","name":"maxCompletions","type":"uint256"}],"stateMutability":"view","type":"function"},{"inputs":[{"internalType":"uint256","name":"questId","type":"uint256"},{"internalType":"address","name":"user","type":"address"},{"internalType":"bytes32","name":"proofHash","type":"bytes32"}],"name":"recordCompletion","outputs":[],"stateMutability":"nonpayable","type":"function"},{"inputs":[],"name":"renounceOwnership","outputs":[],"stateMutability":"nonpayable","type":"function"},{"inputs":[{"internalType":"address","name":"from","type":"address"},{"internalType":"address","name":"to","type":"address"},{"internalType":"uint256","name":"tokenId","type":"uint256"}],"name":"safeTransferFrom","outputs":[],"stateMutability":"nonpayable","type":"function"},{"inputs":[{"internalType":"address","name":"from","type":"address"},{"internalType":"address","name":"to","type":"address"},{"internalType":"uint256","name":"tokenId","type":"uint256"},{"internalType":"bytes","name":"data","type":"bytes"}],"name":"safeTransferFrom","outputs":[],"stateMutability":"nonpayable","type":"function"},{"inputs":[{"internalType":"address","name":"agent","type":"address"},{"internalType":"bool","name":"authorized","type":"bool"}],"name":"setAgent","outputs":[],"stateMutability":"nonpayable","type":"function"},{"inputs":[{"internalType":"address","name":"operator","type":"address"},{"internalType":"bool","name":"approved","type":"bool"}],"name":"setApprovalForAll","outputs":[],"stateMutability":"nonpayable","type":"function"},{"inputs":[{"internalType":"bytes4","name":"interfaceId","type":"bytes4"}],"name":"supportsInterface","outputs":[{"internalType":"bool","name":"","type":"bool"}],"stateMutability":"view","type":"function"},{"inputs":[],"name":"symbol","outputs":[{"internalType":"string","name":"","type":"string"}],"stateMutability":"view","type":"function"},{"inputs":[{"internalType":"uint256","name":"tokenId","type":"uint256"}],"name":"tokenURI","outputs":[{"internalType":"string","name":"","type":"string"}],"stateMutability":"view","type":"function"},{"inputs":[{"internalType":"uint256","name":"","type":"uint256"}],"name":"tokenURIs","outputs":[{"internalType":"string","name":"","type":"string"}],"stateMutability":"view","type":"function"},{"inputs":[{"internalType":"address","name":"from","type":"address"},{"internalType":"address","name":"to","type":"address"},{"internalType":"uint256","name":"tokenId","type":"uint256"}],"name":"transferFrom","outputs":[],"stateMutability":"nonpayable","type":"function"},{"inputs":[{"internalType":"address","name":"newOwner","type":"address"}],"name":"transferOwnership","outputs":[],"stateMutability":"nonpayable","type":"function"},{"inputs":[{"internalType":"address","name":"","type":"address"}],"name":"userStats","outputs":[{"internalType":"uint256","name":"totalCompleted","type":"uint256"},{"internalType":"uint256","name":"totalRewardsClaimed","type":"uint256"},{"internalType":"uint256","name":"currentStreak","type":"uint256"},{"internalType":"uint256","name":"lastCompletionTime","type":"uint256"}],"stateMutability":"view","type":"function"},{"inputs":[{"internalType":"uint256","name":"amount","type":"uint256"}],"name":"withdrawETH","outputs":[],"stateMutability":"nonpayable","type":"function"},{"inputs":[{"internalType":"address","name":"token","type":"address"},{"internalType":"uint256","name":"amount","type":"uint256"}],"name":"withdrawTokens","outputs":[],"stateMutability":"nonpayable","type":"function"}],"evm":{"bytecode":{"linkReferences":{},"object":"6080346200039b576001600160401b039060408181018381118382101762000387578152600f82526020926e4f70656e517565737420426164676560881b84840152815190828201828110828211176200038757835260078252664f51424144474560c81b85830152835181811162000387575f928354916001968784811c941680156200037c575b8985101462000368578190601f9485811162000315575b508990858311600114620002b2578792620002a6575b50505f19600383901b1c191690871b1784555b8051928311620002925785548681811c9116801562000287575b888210146200027357908183859493116200021e575b5087918311600114620001bb578492620001af575b50505f19600383901b1c191690841b1783555b3315620001995760068054336001600160a01b031982168117909255835195600e9290916001600160a01b03167f8be0079c531659141344cd1fd0a4f28419497f9722a3daafe3b4186f6b6457e08580a384600755846008558460095533835252209060ff198254161790556134349081620003a08239f35b6024915190631e4fbdf760e01b82526004820152fd5b015190505f806200010d565b8685528785208794509190601f198416865b8a828210620002075750508411620001ee575b505050811b01835562000120565b01515f1960f88460031b161c191690555f8080620001e0565b8385015186558a97909501949384019301620001cd565b909192508685528785208380860160051c8201928a871062000269575b9186958a929594930160051c01915b8281106200025a575050620000f8565b8781558695508991016200024a565b925081926200023b565b634e487b7160e01b85526022600452602485fd5b90607f1690620000e2565b634e487b7160e01b84526041600452602484fd5b015190505f80620000b5565b8780528a88208a94509190601f198416895b8d828210620002fe5750508411620002e5575b505050811b018455620000c8565b01515f1960f88460031b161c191690555f8080620002d7565b8385015186558d97909501949384019301620002c4565b9091508680528987208580850160051c8201928c86106200035e575b918b91869594930160051c01915b8281106200034f5750506200009f565b8981558594508b91016200033f565b9250819262000331565b634e487b7160e01b86526022600452602486fd5b93607f169362000088565b634e487b7160e01b5f52604160045260245ffd5b5f80fdfe6080806040526004361015610012575f80fd5b5f3560e01c90816301ffc9a71461289f5750806306b091f91461282357806306fdde0314612783578063081812fc14612747578063095ea7b3146126665780630d1e16341461227157806323b872dd1461225a57806333eb79591461215457806335c1d3491461211257806337c245fe146120c357806342842e0e1461209657806349f86f3414611e0b5780634e43603a14611d3d5780635027e78914611cad5780636352211e14611c7d5780636c8b703f14611c5357806370a0823114611bfd578063715018a614611ba25780638a65d87414611b465780638da5cb5b14611b1e57806395d89b4114611a5657806397840b3e146113b157806397d8c676146113465780639948d16b1461109b5780639c4e0dce1461104f578063a22cb46514610fbb578063a34b46fe14610db0578063ae169a50146106a3578063b88d4fde14610638578063bd097e2114610623578063c87b56dd14610592578063dfe6b5d6146104e9578063e085f980146103b0578063e985e9c51461035e578063e9d2821d146102fc578063f14210a614610286578063f2fde38b146101ff5763fd66091e146101be575f80fd5b346101fb5760203660031901126101fb576001600160a01b036101df61290a565b165f52600e602052602060ff60405f2054166040519015158152f35b5f80fd5b346101fb5760203660031901126101fb5761021861290a565b610220612c65565b6001600160a01b0390811690811561026e57600654826001600160601b0360a01b821617600655167f8be0079c531659141344cd1fd0a4f28419497f9722a3daafe3b4186f6b6457e05f80a3005b604051631e4fbdf760e01b81525f6004820152602490fd5b346101fb5760203660031901126101fb5761029f612c65565b5f80808060043560018060a01b03600654165af16102bb612ea7565b50156102c357005b60405162461bcd60e51b815260206004820152601160248201527015da5d1a191c985dd85b0819985a5b1959607a1b6044820152606490fd5b346101fb5760203660031901126101fb57335f52600e60205260ff60405f205416801561034a575b61032d90612ff8565b6004355f908152600a60205260409020600901805460ff19169055005b506006546001600160a01b03163314610324565b346101fb5760403660031901126101fb5761037761290a565b61037f612920565b9060018060a01b038091165f52600560205260405f2091165f52602052602060ff60405f2054166040519015158152f35b346101fb5760203660031901126101fb576004355f52600a60205260405f208054600182016103de90612b26565b916103eb60028201612b26565b6103f760038301612b26565b91600481015492600582015493600160a01b600190039485600685015416600785015491600886015493600987015460ff1695600a88015497600b0154986040519c8d9c8d528c6101e06020819201528d0161045291612957565b8c810360408e015261046391612957565b8b810360608d015261047491612957565b98811660808b01528060a01c60ff1661048c81612a49565b60a08b01526104a560c08b0160ff60a884901c16612a53565b60b01c60ff166104b481612a49565b60e08a015261010089015261012088015261014087015261016086015215156101808501526101a08401526101c08301520390f35b346101fb575f3660031901126101fb576008545f19808201905f83831161057e57600f549360095492830192831161057e576001905b8082106105545750509061055091604051948594859094939260609260808301968352602083015260408201520152565b0390f35b909161057261057891845f52600a8060205260405f20015490613049565b9261303b565b9061051f565b634e487b7160e01b5f52601160045260245ffd5b346101fb5760203660031901126101fb576004356001600160a01b036105b782612e6d565b16156105e7575f52600d6020526105506105d360405f20612b26565b604051918291602083526020830190612957565b60405162461bcd60e51b8152602060048201526014602482015273151bdad95b88191bd95cc81b9bdd08195e1a5cdd60621b6044820152606490fd5b5f3660031901126101fb57610636612c65565b005b346101fb5760803660031901126101fb5761065161290a565b610659612920565b90604435606435926001600160401b0384116101fb57366023850112156101fb57610691610636943690602481600401359101612be2565b9261069d838383612c91565b33612ed6565b346101fb576020806003193601126101fb576004356002918260075414610d9e5782600755815f52600b815260405f20335f52815260405f20600481019384549460ff861615610d6a5760ff8660081c16610d3357845f52600a845261010060405f209661ff001916179055600485019160ff835460b01c1661072581612a49565b80610be95750600954906107388261303b565b60095560405161074781612aea565b5f81523315610bd1575f83815284875260409020546001600160a01b03908116610b8c57835f5284875260405f205416838115159182610b5b575b335f526003895260405f2096600197888154019055825f52895260405f20336001600160601b0360a01b82541617905533907fddf252ad1be2c89b69c2b068fc378daa952ba7f163c4a11628f55a4df523b3ef5f80a4610b4357333b610a55575b50600582910155335f52600c8452600460405f20018054600160401b811015610a2d57838101808355811015610a415782915f52855f200155610825856131ef565b906108b0604161084460ff875460a01c1661083f81612a49565b6131ef565b936040519485917f68747470733a2f2f6261736571756573742e6170702f6170692f62616467652f8a840152610883815180928c604087019101612936565b8201602f60f81b60408201526108a1825180938c8785019101612936565b01036021810185520183612b05565b5f52600d845260405f20918151916001600160401b038311610a2d576108d68454612a60565b601f81116109e7575b508590601f841160011461097e57928060ff95938193600598965f94610973575b50501b915f199060031b1c19161790555b335f52600c8452600160405f2001610929815461303b565b90555460b01c16930154906040519361094181612a49565b84528301527f7dbafd50f1a2a8e0853f65054eb024c174da1bb76b664ad997927d8fd98bcf7e60403393a36001600755005b015192508b80610900565b90601f93929319831691855f52875f20925f5b898282106109d3575050916005979593918560ff989694106109bb575b505050811b019055610911565b01515f1960f88460031b161c191690558980806109ae565b838501518655948701949384019301610991565b845f52865f20601f850160051c810191888610610a23575b601f0160051c019083905b828110610a185750506108df565b5f8155018390610a0a565b90915081906109ff565b634e487b7160e01b5f52604160045260245ffd5b634e487b7160e01b5f52603260045260245ffd5b60409796959751888180610a91630a85bd0160e11b958683523360048401525f6024840152886044840152608060648401526084830190612957565b03815f335af15f9181610b03575b50610ad15788610aad612ea7565b8051919082610ace57604051633250574960e11b8152336004820152602490fd5b01fd5b969795966001600160e01b03191603610aeb5760056107e3565b604051633250574960e11b8152336004820152602490fd5b9091508981813d8311610b3c575b610b1b8183612b05565b810103126101fb57516001600160e01b0319811681036101fb57908a610a9f565b503d610b11565b6040516339e3563760e11b81525f6004820152602490fd5b5f8281526004602052604080822080546001600160a01b031916905582825260038b52902080545f19019055610782565b60405162461bcd60e51b815260048101889052601f60248201527f536f756c626f756e643a205472616e73666572206e6f7420616c6c6f776564006044820152606490fd5b604051633250574960e11b81525f6004820152602490fd5b9050610bf481612a49565b60018103610cc657505060068401546001600160a01b03168015610c9157600585015460405163a9059cbb60e01b8152336004820152602481019190915291908390839060449082905f905af1908115610c865760059260ff92610c59575b50610911565b610c7890853d8711610c7f575b610c708183612b05565b8101906131d7565b5086610c53565b503d610c66565b6040513d5f823e3d90fd5b60405162461bcd60e51b815260048101849052600d60248201526c24b73b30b634b2103a37b5b2b760991b6044820152606490fd5b610ccf81612a49565b14610cdf575b60ff600591610911565b5f8080806005880154335af1610cf3612ea7565b50610cd55760405162461bcd60e51b8152600481018390526013602482015272115512081d1c985b9cd9995c8819985a5b1959606a1b6044820152606490fd5b60405162461bcd60e51b815260048101859052600f60248201526e105b1c9958591e4818db185a5b5959608a1b6044820152606490fd5b60405162461bcd60e51b815260048101859052600c60248201526b139bdd081d995c9a599a595960a21b6044820152606490fd5b604051633ee5aeb560e01b8152600490fd5b346101fb576020806003193601126101fb57600f549060043582811015610fb457915b610ddc836133b8565b92610de6816133b8565b91610df0816133b8565b610df9826133b8565b915f5b818110610f5f57505f5b818110610eb15750505f5b838110610e6e5750505050604051916040830160408452845180915281606085019501905f5b818110610e51578587038487015285806105508988612a16565b82516001600160a01b031687529583019591830191600101610e37565b610eac906001600160a01b03610e8482856133ea565b5116610e90828a6133ea565b52610e9b81856133ea565b51610ea682886133ea565b5261303b565b610e11565b6001810180821161057e575b828110610ed35750610ece9061303b565b610e06565b610ef790610ee183876133ea565b51610eec82886133ea565b5111610efc5761303b565b610ebd565b610f0681876133ea565b51610f1184886133ea565b51610f1c83896133ea565b52610f2784886133ea565b526001600160a01b0380610f3b83886133ea565b511690610f4885886133ea565b5116610f5483886133ea565b52610ea684876133ea565b80610f6c610faf926129e1565b90546001600160a01b039160039190821b1c8216610f8a84886133ea565b52610f94836129e1565b9054911b1c165f52600c885260405f2054610ea682876133ea565b610dfc565b5081610dd3565b346101fb57610fc936612c36565b6001600160a01b0390911690811561103657335f52600560205260405f20825f526020526110068160405f209060ff801983541691151516179055565b60405190151581527f17307eab39ab6107e8899845ad3d59bd9653f200f220920489ca2b5937696c3160203392a3005b604051630b61174360e31b815260048101839052602490fd5b346101fb5760403660031901126101fb57611068612920565b6004355f52600b60205260405f209060018060a01b03165f52602052602060ff600460405f200154166040519015158152f35b346101fb5760603660031901126101fb576110b4612920565b335f526020600e815260ff60405f2054168015611332575b6110d590612ff8565b60043590815f52600a908181526110f560ff600960405f20015416613062565b825f5281815261110e600760405f2001544210156130a1565b825f52818152611127600860405f2001544211156130e1565b825f52600b815260405f209360018060a01b039283821695865f528352600260405f2001546112f957917f2ea420e0202cf18329ad26f1843532349f5c2413be864d969eb33135eeb351739391604093865f52808352845f20611198600b82015480159081156112ec575b5061311d565b85516111a381612a98565b89815260058961124a8c888086018481528c870142815260608801916044359d8e845260808a01956001875260a08b01955f875260c08c01995f8b525f52600b815260405f20915f52528f5f209951166001600160601b0360a01b8a54161789555160018901555160028801555160038701556112336004870192511515839060ff801983541691151516179055565b51815461ff00191690151560081b61ff0016179055565b5191015501611259815461303b565b9055865f526010825260ff845f205416156112c8575b50600c8152825f20611281815461303b565b81556003810190620151806112978354426131a6565b116112bc576002016112a9815461303b565b90555b42905582519182524290820152a3005b600260019101556112ac565b6112d190613169565b855f5260108152825f20600160ff198254161790558661126f565b905083830154108b611192565b60405162461bcd60e51b8152600481018490526011602482015270105b1c9958591e4818dbdb5c1b195d1959607a1b6044820152606490fd5b506006546001600160a01b031633146110cc565b346101fb5760207f1b06338d0edf2ba8ccee31e466ab37b376418209af6a85c55c51e89a51e33bde61137736612c36565b9290611381612c65565b6001600160a01b03165f818152600e835260409020805460ff191660ff86151516179055926040519015158152a2005b346101fb576101603660031901126101fb576004356001600160401b0381116101fb576113e2903690600401612c18565b6024356001600160401b0381116101fb57611401903690600401612c18565b6044356001600160401b0381116101fb57611420903690600401612c18565b60643591906001600160a01b03831683036101fb57600360843510156101fb57600460a43510156101fb57600360c43510156101fb57610104356001600160a01b03811681036101fb57335f52600e60205260ff60405f2054168015611a42575b61148a90612ff8565b600854936114978561303b565b6008556114a76101243542613049565b92604051946114b586612ab3565b86865260208601889052604086015260608501526001600160a01b031660808401526114e2608435612a49565b60843560a08401526114f960a43560c08501613056565b61150460c435612a49565b60c43560e084015260e43561010084015260018060a01b03166101208301524261014083015261016082015260016101808201525f6101a0820152610144356101c0820152815f52600a60205260405f208151815560208201518051906001600160401b038211610a2d57819061157e6001850154612a60565b601f81116119f2575b50602090601f8311600114611987575f9261197c575b50508160011b915f199060031b1c19161760018201555b60408201518051906001600160401b038211610a2d5781906115d96002850154612a60565b601f811161192c575b50602090601f83116001146118c1575f926118b6575b50508160011b915f199060031b1c19161760028201555b60608201518051906001600160401b038211610a2d5781906116346003850154612a60565b601f8111611866575b50602090601f83116001146117f8575f926117ed575b50508160011b915f199060031b1c19161760038201555b60018060a01b036080830151169360048201549060a08401519261168d84612a49565b61169684612a49565b60c08501519260048410156117d9576101c0867f21d08dbf39036d0f432f747b54e1710fbbfe3328509cbfd2ffbbd12bff13cf91966117ad96600b9460209c60e08d9c01516116e481612a49565b6116ed81612a49565b60ff60b01b9060b01b169360ff60a01b9060a01b169168ffffffffffffffffff60b81b1617179060ff60a81b9060a81b161717600485015561010081015160058501556006840160018060a01b03610120830151166001600160601b0360a01b825416179055610140810151600785015561016081015160088501556117896101808201511515600986019060ff801983541691151516179055565b6101a0810151600a8501550151910155604051918291606083526060830190612957565b6117b8608435612a49565b608435878301526117ce6040830160a435612a53565b0390a2604051908152f35b634e487b7160e01b5f52602160045260245ffd5b015190508680611653565b9250600384015f5260205f20905f935b601f198416851061184b576001945083601f19811610611833575b505050811b01600382015561166a565b01515f1960f88460031b161c19169055868080611823565b81810151835560209485019460019093019290910190611808565b909150600384015f5260205f20601f840160051c8101602085106118af575b90849392915b601f830160051c820181106118a157505061163d565b5f815585945060010161188b565b5080611885565b0151905086806115f8565b600285015f908152602081209350601f198516905b81811061191457509084600195949392106118fc575b505050811b01600282015561160f565b01515f1960f88460031b161c191690558680806118ec565b929360206001819287860151815501950193016118d6565b909150600284015f5260205f20601f840160051c810160208510611975575b90849392915b601f830160051c820181106119675750506115e2565b5f8155859450600101611951565b508061194b565b01519050868061159d565b600185015f908152602081209350601f198516905b8181106119da57509084600195949392106119c2575b505050811b0160018201556115b4565b01515f1960f88460031b161c191690558680806119b2565b9293602060018192878601518155019501930161199c565b909150600184015f5260205f20601f840160051c810160208510611a3b575b90849392915b601f830160051c82018110611a2d575050611587565b5f8155859450600101611a17565b5080611a11565b506006546001600160a01b03163314611481565b346101fb575f3660031901126101fb576040515f6001805490611a7882612a60565b80855291818116908115611af75750600114611a9f575b610550846105d381860382612b05565b5f81815292507fb10e2d527612073b26eecdfd717e6a320cf44b4afac2b0732d9fcbe2b7fa0cf65b828410611adf5750505081016020016105d382611a8f565b80546020858701810191909152909301928101611ac7565b60ff191660208087019190915292151560051b850190920192506105d39150839050611a8f565b346101fb575f3660031901126101fb576006546040516001600160a01b039091168152602090f35b346101fb5760203660031901126101fb576001600160a01b03611b6761290a565b165f908152600c6020908152604091829020805460018201546002830154600390930154855192835293820152928301526060820152608090f35b346101fb575f3660031901126101fb57611bba612c65565b600680546001600160a01b031981169091555f906001600160a01b03167f8be0079c531659141344cd1fd0a4f28419497f9722a3daafe3b4186f6b6457e08280a3005b346101fb5760203660031901126101fb576001600160a01b03611c1e61290a565b168015611c3b575f526003602052602060405f2054604051908152f35b6040516322718ad960e21b81525f6004820152602490fd5b346101fb5760203660031901126101fb576004355f52600d6020526105506105d360405f20612b26565b346101fb5760203660031901126101fb576020611c9b600435612e6d565b6040516001600160a01b039091168152f35b346101fb5760403660031901126101fb5760e0611cc8612920565b6004355f52600b60205260405f2060018060a01b038092165f5260205260405f20908154169060ff600182015491600281015460038201549060056004840154930154946040519687526020870152604086015260608501528181161515608085015260081c16151560a083015260c0820152f35b346101fb576020806003193601126101fb57611d5761290a565b60606080604051611d6781612acf565b5f81525f858201525f60408201525f83820152015260018060a01b03165f52600c815260405f2061055060405191611d9e83612acf565b80548352600181015490848401918252600281015460408501908152611dd260046003840154936060880194855201613355565b926080860193845260405196879681885251908701525160408601525160608501525160808401525160a08084015260c0830190612a16565b346101fb5760203660031901126101fb575f6101c0604051611e2c81612ab3565b82815260606020820152606060408201526060808201528260808201528260a08201528260c08201528260e08201528261010082015282610120820152826101408201528261016082015282610180820152826101a082015201526004355f52600a60205260405f20600b60405191611ea483612ab3565b80548352611eb460018201612b26565b6020840152611ec560028201612b26565b6040840152611ed660038201612b26565b606084015260048101546001600160a01b038116608085015260ff90611f0160a082901c8316612a49565b818160a01c1660a0860152611f1e828260a81c1660c08701613056565b611f2c828260b01c16612a49565b60b01c1660e0840152600581015461010084015260018060a01b036006820154166101208401526007810154610140840152600881015461016084015260ff6009820154161515610180840152600a8101546101a084015201546101c0820152604051809160208252805160208301526101c0611fee611fbd60208401516101e06040870152610200860190612957565b611fd9604085015191601f199283888303016060890152612957565b90606085015190868303016080870152612957565b9160018060a01b0360808201511660a085015260a081015161200f81612a49565b60c085015261202660c082015160e0860190612a53565b60e081015161203481612a49565b61010085015261010081015161012085015260018060a01b036101208201511661014085015261014081015161016085015261016081015161018085015261018081015115156101a08501526101a08101518285015201516101e08301520390f35b346101fb576106366120a7366129ac565b90604051926120b584612aea565b5f845261069d838383612c91565b346101fb5760203660031901126101fb576001600160a01b036120e461290a565b165f52600c6020526105506120fe600460405f2001613355565b604051918291602083526020830190612a16565b346101fb5760203660031901126101fb57600435600f548110156101fb5761213b6020916129e1565b905460405160039290921b1c6001600160a01b03168152f35b346101fb5760403660031901126101fb5760e061216f612920565b5f60c060405161217e81612a98565b8281528260208201528260408201528260608201528260808201528260a082015201526004355f52600b60205260405f2060018060a01b038092165f5260205260405f2090604051906121d082612a98565b82541691828252600181015490602083019182526002810154604084019081526003820154906060850191825260048301549360c06005608088019560ff88161515875260ff60a08a019860081c161515885201549601958652604051968752516020870152516040860152516060850152511515608084015251151560a08301525160c0820152f35b346101fb5761063661226b366129ac565b91612c91565b346101fb5760603660031901126101fb576001600160401b036024358181116101fb576122a290369060040161297c565b916044359081116101fb576122bb90369060040161297c565b91335f52600e60205260ff60405f2054168015612652575b6122dc90612ff8565b6004355f52600a6020526122f960ff600960405f20015416613062565b6004355f52600a602052612316600760405f2001544210156130a1565b6004355f52600a602052612333600860405f2001544211156130e1565b828403612615576004355f52600a60205260405f20905f5b85811061235457005b6004355f908152600b6020526040902061239c91906001600160a01b0361238461237f848b886131b3565b6131c3565b165f52602052600260405f200154156123a15761303b565b61234b565b6123b8600b8501548015908115612607575061311d565b6123c661237f8289866131b3565b6123d18288886131b3565b35604051916123df83612a98565b60018060a01b0316825260043560208301524260408301526060820152600160808201525f60a08201525f60c08201526004355f52600b60205260405f2060018060a01b0361243261237f858c896131b3565b165f52602052600560c060405f209260018060a01b038151166001600160601b0360a01b8554161784556020810151600185015560408101516002850155606081015160038501556124b86004850161249d60808401511515829060ff801983541691151516179055565b60a0830151815461ff00191690151560081b61ff0016179055565b0151910155600a84016124cb815461303b565b90556001600160a01b036124e361237f838a876131b3565b165f52601060205260ff60405f205416156125bf575b6001600160a01b0361250f61237f838a876131b3565b165f52600c60205260405f20612525815461303b565b815560038101906201518061253b8354426131a6565b116125b35760020161254d815461303b565b90555b42905561256161237f8289866131b3565b61256c8288886131b3565b60408051913582524260208301526001600160a01b0390921691600435917f2ea420e0202cf18329ad26f1843532349f5c2413be864d969eb33135eeb351739190a361303b565b60026001910155612550565b6125d56125d061237f838a876131b3565b613169565b6001600160a01b036125eb61237f838a876131b3565b165f52601060205260405f20600160ff198254161790556124f9565b9050600a8601541089611192565b60405162461bcd60e51b8152602060048201526015602482015274082e4e4c2f240d8cadccee8d040dad2e6dac2e8c6d605b1b6044820152606490fd5b506006546001600160a01b031633146122d3565b346101fb5760403660031901126101fb5761267f61290a565b60243561268b81612e6d565b33151580612734575b8061270b575b6126f3576001600160a01b039283169282918491167f8c5be1e5ebec7d5bd14f71427d1e84f3dd0314c0f7b2291e5b200ac8c7c3b9255f80a45f90815260046020526040902080546001600160a01b0319169091179055005b60405163a9fbf51f60e01b8152336004820152602490fd5b5060018060a01b0381165f52600560205260405f20335f5260205260ff60405f2054161561269a565b506001600160a01b038116331415612694565b346101fb5760203660031901126101fb5760043561276481612e6d565b505f526004602052602060018060a01b0360405f205416604051908152f35b346101fb575f3660031901126101fb576040515f80546127a281612a60565b80845290600190818116908115611af757506001146127cb57610550846105d381860382612b05565b5f80805292507f290decd9548b62a8d60345a988386fc84ba6bc95484008f6362f93160ef3e5635b82841061280b5750505081016020016105d382611a8f565b805460208587018101919091529093019281016127f3565b346101fb5760403660031901126101fb5761283c61290a565b612844612c65565b60065460405163a9059cbb60e01b81526001600160a01b039182166004820152602480359082015291602091839160449183915f91165af18015610c865761288857005b6106369060203d8111610c7f57610c708183612b05565b346101fb5760203660031901126101fb576004359063ffffffff60e01b82168092036101fb576020916380ac58cd60e01b81149081156128f9575b81156128e8575b5015158152f35b6301ffc9a760e01b149050836128e1565b635b5e139f60e01b811491506128da565b600435906001600160a01b03821682036101fb57565b602435906001600160a01b03821682036101fb57565b5f5b8381106129475750505f910152565b8181015183820152602001612938565b9060209161297081518092818552858086019101612936565b601f01601f1916010190565b9181601f840112156101fb578235916001600160401b0383116101fb576020808501948460051b0101116101fb57565b60609060031901126101fb576001600160a01b039060043582811681036101fb579160243590811681036101fb579060443590565b600f54811015610a4157600f5f527f8d1108e10bcb7c27dddfc02ed9d693a074039d026cf4ea4240b40f7d581ac80201905f90565b9081518082526020808093019301915f5b828110612a35575050505090565b835185529381019392810192600101612a27565b600311156117d957565b9060048210156117d95752565b90600182811c92168015612a8e575b6020831014612a7a57565b634e487b7160e01b5f52602260045260245ffd5b91607f1691612a6f565b60e081019081106001600160401b03821117610a2d57604052565b6101e081019081106001600160401b03821117610a2d57604052565b60a081019081106001600160401b03821117610a2d57604052565b602081019081106001600160401b03821117610a2d57604052565b90601f801991011681019081106001600160401b03821117610a2d57604052565b9060405191825f825492612b3984612a60565b9081845260019485811690815f14612ba45750600114612b64575b5050612b6292500383612b05565b565b909391505f52602090815f20935f915b818310612b8c575050612b6293508201015f80612b54565b85548884018501529485019487945091830191612b74565b915050612b6294506020925060ff191682840152151560051b8201015f80612b54565b6001600160401b038111610a2d57601f01601f191660200190565b929192612bee82612bc7565b91612bfc6040519384612b05565b8294818452818301116101fb578281602093845f960137010152565b9080601f830112156101fb57816020612c3393359101612be2565b90565b60409060031901126101fb576004356001600160a01b03811681036101fb579060243580151581036101fb5790565b6006546001600160a01b03163303612c7957565b60405163118cdaa760e01b8152336004820152602490fd5b6001600160a01b039182169290918315610bd1575f9282845260209460028652604095838787205416612e2a579084918287526002815284888820541696879133151580612d91575b509060027fddf252ad1be2c89b69c2b068fc378daa952ba7f163c4a11628f55a4df523b3ef9284612d60575b858352600381528b8320805460010190558683525289812080546001600160a01b0319168517905580a41692838303612d3f5750505050565b6064945051926364283d7b60e01b8452600484015260248301526044820152fd5b5f87815260046020526040902080546001600160a01b0319169055848352600381528b832080545f19019055612d06565b91939450915080612de9575b15612dad5785929187915f612cda565b878688612dca576024915190637e27328960e01b82526004820152fd5b905163177e802f60e01b81523360048201526024810191909152604490fd5b503387148015612e0e575b80612d9d5750858252600481523385898420541614612d9d565b5086825260058152878220338352815260ff8883205416612df4565b60649087519062461bcd60e51b82526004820152601f60248201527f536f756c626f756e643a205472616e73666572206e6f7420616c6c6f776564006044820152fd5b5f818152600260205260409020546001600160a01b0316908115612e8f575090565b60249060405190637e27328960e01b82526004820152fd5b3d15612ed1573d90612eb882612bc7565b91612ec66040519384612b05565b82523d5f602084013e565b606090565b9293823b612ee6575b5050505050565b612f2a9060018060a01b038094169560405194859481630a85bd0160e11b988988521660048701521660248501526044840152608060648401526084830190612957565b03906020815f938185885af190829082612fa9575b5050612f775782612f4e612ea7565b8051919082612f7057604051633250574960e11b815260048101839052602490fd5b6020915001fd5b6001600160e01b03191603612f9157505f80808080612edf565b60249060405190633250574960e11b82526004820152fd5b909192506020813d8211612ff0575b81612fc560209383612b05565b81010312612fec5751906001600160e01b031982168203612fe95750905f80612f3f565b80fd5b5080fd5b3d9150612fb8565b15612fff57565b60405162461bcd60e51b8152602060048201526014602482015273139bdd08185d5d1a1bdc9a5e9959081859d95b9d60621b6044820152606490fd5b5f19811461057e5760010190565b9190820180921161057e57565b60048210156117d95752565b1561306957565b60405162461bcd60e51b815260206004820152601060248201526f5175657374206e6f742061637469766560801b6044820152606490fd5b156130a857565b60405162461bcd60e51b8152602060048201526011602482015270145d595cdd081b9bdd081cdd185c9d1959607a1b6044820152606490fd5b156130e857565b60405162461bcd60e51b815260206004820152600d60248201526c145d595cdd08195e1c1a5c9959609a1b6044820152606490fd5b1561312457565b60405162461bcd60e51b815260206004820152601960248201527f517565737420636f6d706c65746564206d61782074696d6573000000000000006044820152606490fd5b600f54600160401b811015610a2d578060016131889201600f556129e1565b819291549060031b9160018060a01b03809116831b921b1916179055565b9190820391821161057e57565b9190811015610a415760051b0190565b356001600160a01b03811681036101fb5790565b908160209103126101fb575180151581036101fb5790565b805f917a184f03e93ff9f4daa797ed6e38ed64bf6a1f01000000000000000080821015613347575b506d04ee2d6d415b85acef810000000080831015613338575b50662386f26fc1000080831015613329575b506305f5e1008083101561331a575b506127108083101561330b575b5060648210156132fb575b600a809210156132f1575b6001908160218186019561328787612bc7565b966132956040519889612b05565b8088526132a4601f1991612bc7565b01366020890137860101905b6132bc575b5050505090565b5f19019083906f181899199a1a9b1b9c1cb0b131b232b360811b8282061a8353049182156132ec579190826132b0565b6132b5565b9160010191613274565b9190606460029104910191613269565b6004919392049101915f61325e565b6008919392049101915f613251565b6010919392049101915f613242565b6020919392049101915f613230565b60409350810491505f613217565b906040519182815491828252602092838301915f52835f20935f905b82821061338757505050612b6292500383612b05565b855484526001958601958895509381019390910190613371565b6001600160401b038111610a2d5760051b60200190565b906133c2826133a1565b6133cf6040519182612b05565b82815280926133e0601f19916133a1565b0190602036910137565b8051821015610a415760209160051b01019056fea2646970667358221220dbdaa2836571d3e9f0e7e565f9b55f61f9f8b46dc3f675be2d2ca3b1ec75558064736f6c63430008140033","opcodes":"PUSH1 0x80 CALLVALUE PUSH3 0x39B JUMPI PUSH1 0x1 PUSH1 0x1 PUSH1 0x40 SHL SUB SWAP1 PUSH1 0x40 DUP2 DUP2 ADD DUP4 DUP2 GT DUP4 DUP3 LT OR PUSH3 0x387 JUMPI DUP2 MSTORE PUSH1 0xF DUP3 MSTORE PUSH1 0x20 SWAP3 PUSH15 0x4F70656E5175657374204261646765 PUSH1 0x88 SHL DUP5 DUP5 ADD MSTORE DUP2 MLOAD SWAP1 DUP3 DUP3 ADD DUP3 DUP2 LT DUP3 DUP3 GT OR PUSH3 0x387 JUMPI DUP4 MSTORE PUSH1 0x7 DUP3 MSTORE PUSH7 0x4F514241444745 PUSH1 0xC8 SHL DUP6 DUP4 ADD MSTORE DUP4 MLOAD DUP2 DUP2 GT PUSH3 0x387 JUMPI PUSH0 SWAP3 DUP4 SLOAD SWAP2 PUSH1 0x1 SWAP7 DUP8 DUP5 DUP2 SHR SWAP5 AND DUP1 ISZERO PUSH3 0x37C JUMPI JUMPDEST DUP10 DUP6 LT EQ PUSH3 0x368 JUMPI DUP2 SWAP1 PUSH1 0x1F SWAP5 DUP6 DUP2 GT PUSH3 0x315 JUMPI JUMPDEST POP DUP10 SWAP1 DUP6 DUP4 GT PUSH1 0x1 EQ PUSH3 0x2B2 JUMPI DUP8 SWAP3 PUSH3 0x2A6 JUMPI JUMPDEST POP POP PUSH0 NOT PUSH1 0x3 DUP4 SWAP1 SHL SHR NOT AND SWAP1 DUP8 SHL OR DUP5 SSTORE JUMPDEST DUP1 MLOAD SWAP3 DUP4 GT PUSH3 0x292 JUMPI DUP6 SLOAD DUP7 DUP2 DUP2 SHR SWAP2 AND DUP1 ISZERO PUSH3 0x287 JUMPI JUMPDEST DUP9 DUP3 LT EQ PUSH3 0x273 JUMPI SWAP1 DUP2 DUP4 DUP6 SWAP5 SWAP4 GT PUSH3 0x21E JUMPI JUMPDEST POP DUP8 SWAP2 DUP4 GT PUSH1 0x1 EQ PUSH3 0x1BB JUMPI DUP5 SWAP3 PUSH3 0x1AF JUMPI JUMPDEST POP POP PUSH0 NOT PUSH1 0x3 DUP4 SWAP1 SHL SHR NOT AND SWAP1 DUP5 SHL OR DUP4 SSTORE JUMPDEST CALLER ISZERO PUSH3 0x199 JUMPI PUSH1 0x6 DUP1 SLOAD CALLER PUSH1 0x1 PUSH1 0x1 PUSH1 0xA0 SHL SUB NOT DUP3 AND DUP2 OR SWAP1 SWAP3 SSTORE DUP4 MLOAD SWAP6 PUSH1 0xE SWAP3 SWAP1 SWAP2 PUSH1 0x1 PUSH1 0x1 PUSH1 0xA0 SHL SUB AND PUSH32 0x8BE0079C531659141344CD1FD0A4F28419497F9722A3DAAFE3B4186F6B6457E0 DUP6 DUP1 LOG3 DUP5 PUSH1 0x7 SSTORE DUP5 PUSH1 0x8 SSTORE DUP5 PUSH1 0x9 SSTORE CALLER DUP4 MSTORE MSTORE KECCAK256 SWAP1 PUSH1 0xFF NOT DUP3 SLOAD AND OR SWAP1 SSTORE PUSH2 0x3434 SWAP1 DUP2 PUSH3 0x3A0 DUP3 CODECOPY RETURN JUMPDEST PUSH1 0x24 SWAP2 MLOAD SWAP1 PUSH4 0x1E4FBDF7 PUSH1 0xE0 SHL DUP3 MSTORE PUSH1 0x4 DUP3 ADD MSTORE REVERT JUMPDEST ADD MLOAD SWAP1 POP PUSH0 DUP1 PUSH3 0x10D JUMP JUMPDEST DUP7 DUP6 MSTORE DUP8 DUP6 KECCAK256 DUP8 SWAP5 POP SWAP2 SWAP1 PUSH1 0x1F NOT DUP5 AND DUP7 JUMPDEST DUP11 DUP3 DUP3 LT PUSH3 0x207 JUMPI POP POP DUP5 GT PUSH3 0x1EE JUMPI JUMPDEST POP POP POP DUP2 SHL ADD DUP4 SSTORE PUSH3 0x120 JUMP JUMPDEST ADD MLOAD PUSH0 NOT PUSH1 0xF8 DUP5 PUSH1 0x3 SHL AND SHR NOT AND SWAP1 SSTORE PUSH0 DUP1 DUP1 PUSH3 0x1E0 JUMP JUMPDEST DUP4 DUP6 ADD MLOAD DUP7 SSTORE DUP11 SWAP8 SWAP1 SWAP6 ADD SWAP5 SWAP4 DUP5 ADD SWAP4 ADD PUSH3 0x1CD JUMP JUMPDEST SWAP1 SWAP2 SWAP3 POP DUP7 DUP6 MSTORE DUP8 DUP6 KECCAK256 DUP4 DUP1 DUP7 ADD PUSH1 0x5 SHR DUP3 ADD SWAP3 DUP11 DUP8 LT PUSH3 0x269 JUMPI JUMPDEST SWAP2 DUP7 SWAP6 DUP11 SWAP3 SWAP6 SWAP5 SWAP4 ADD PUSH1 0x5 SHR ADD SWAP2 JUMPDEST DUP3 DUP2 LT PUSH3 0x25A JUMPI POP POP PUSH3 0xF8 JUMP JUMPDEST DUP8 DUP2 SSTORE DUP7 SWAP6 POP DUP10 SWAP2 ADD PUSH3 0x24A JUMP JUMPDEST SWAP3 POP DUP2 SWAP3 PUSH3 0x23B JUMP JUMPDEST PUSH4 0x4E487B71 PUSH1 0xE0 SHL DUP6 MSTORE PUSH1 0x22 PUSH1 0x4 MSTORE PUSH1 0x24 DUP6 REVERT JUMPDEST SWAP1 PUSH1 0x7F AND SWAP1 PUSH3 0xE2 JUMP JUMPDEST PUSH4 0x4E487B71 PUSH1 0xE0 SHL DUP5 MSTORE PUSH1 0x41 PUSH1 0x4 MSTORE PUSH1 0x24 DUP5 REVERT JUMPDEST ADD MLOAD SWAP1 POP PUSH0 DUP1 PUSH3 0xB5 JUMP JUMPDEST DUP8 DUP1 MSTORE DUP11 DUP9 KECCAK256 DUP11 SWAP5 POP SWAP2 SWAP1 PUSH1 0x1F NOT DUP5 AND DUP10 JUMPDEST DUP14 DUP3 DUP3 LT PUSH3 0x2FE JUMPI POP POP DUP5 GT PUSH3 0x2E5 JUMPI JUMPDEST POP POP POP DUP2 SHL ADD DUP5 SSTORE PUSH3 0xC8 JUMP JUMPDEST ADD MLOAD PUSH0 NOT PUSH1 0xF8 DUP5 PUSH1 0x3 SHL AND SHR NOT AND SWAP1 SSTORE PUSH0 DUP1 DUP1 PUSH3 0x2D7 JUMP JUMPDEST DUP4 DUP6 ADD MLOAD DUP7 SSTORE DUP14 SWAP8 SWAP1 SWAP6 ADD SWAP5 SWAP4 DUP5 ADD SWAP4 ADD PUSH3 0x2C4 JUMP JUMPDEST SWAP1 SWAP2 POP DUP7 DUP1 MSTORE DUP10 DUP8 KECCAK256 DUP6 DUP1 DUP6 ADD PUSH1 0x5 SHR DUP3 ADD SWAP3 DUP13 DUP7 LT PUSH3 0x35E JUMPI JUMPDEST SWAP2 DUP12 SWAP2 DUP7 SWAP6 SWAP5 SWAP4 ADD PUSH1 0x5 SHR ADD SWAP2 JUMPDEST DUP3 DUP2 LT PUSH3 0x34F JUMPI POP POP PUSH3 0x9F JUMP JUMPDEST DUP10 DUP2 SSTORE DUP6 SWAP5 POP DUP12 SWAP2 ADD PUSH3 0x33F JUMP JUMPDEST SWAP3 POP DUP2 SWAP3 PUSH3 0x331 JUMP JUMPDEST PUSH4 0x4E487B71 PUSH1 0xE0 SHL DUP7 MSTORE PUSH1 0x22 PUSH1 0x4 MSTORE PUSH1 0x24 DUP7 REVERT JUMPDEST SWAP4 PUSH1 0x7F AND SWAP4 PUSH3 0x88 JUMP JUMPDEST PUSH4 0x4E487B71 PUSH1 0xE0 SHL PUSH0 MSTORE PUSH1 0x41 PUSH1 0x4 MSTORE PUSH1 0x24 PUSH0 REVERT JUMPDEST PUSH0 DUP1 REVERT INVALID PUSH1 0x80 DUP1 PUSH1 0x40 MSTORE PUSH1 0x4 CALLDATASIZE LT ISZERO PUSH2 0x12 JUMPI PUSH0 DUP1 REVERT JUMPDEST PUSH0 CALLDATALOAD PUSH1 0xE0 SHR SWAP1 DUP2 PUSH4 0x1FFC9A7 EQ PUSH2 0x289F JUMPI POP DUP1 PUSH4 0x6B091F9 EQ PUSH2 0x2823 JUMPI DUP1 PUSH4 0x6FDDE03 EQ PUSH2 0x2783 JUMPI DUP1 PUSH4 0x81812FC EQ PUSH2 0x2747 JUMPI DUP1 PUSH4 0x95EA7B3 EQ PUSH2 0x2666 JUMPI DUP1 PUSH4 0xD1E1634 EQ PUSH2 0x2271 JUMPI DUP1 PUSH4 0x23B872DD EQ PUSH2 0x225A JUMPI DUP1 PUSH4 0x33EB7959 EQ PUSH2 0x2154 JUMPI DUP1 PUSH4 0x35C1D349 EQ PUSH2 0x2112 JUMPI DUP1 PUSH4 0x37C245FE EQ PUSH2 0x20C3 JUMPI DUP1 PUSH4 0x42842E0E EQ PUSH2 0x2096 JUMPI DUP1 PUSH4 0x49F86F34 EQ PUSH2 0x1E0B JUMPI DUP1 PUSH4 0x4E43603A EQ PUSH2 0x1D3D JUMPI DUP1 PUSH4 0x5027E789 EQ PUSH2 0x1CAD JUMPI DUP1 PUSH4 0x6352211E EQ PUSH2 0x1C7D JUMPI DUP1 PUSH4 0x6C8B703F EQ PUSH2 0x1C53 JUMPI DUP1 PUSH4 0x70A08231 EQ PUSH2 0x1BFD JUMPI DUP1 PUSH4 0x715018A6 EQ PUSH2 0x1BA2 JUMPI DUP1 PUSH4 0x8A65D874 EQ PUSH2 0x1B46 JUMPI DUP1 PUSH4 0x8DA5CB5B EQ PUSH2 0x1B1E JUMPI DUP1 PUSH4 0x95D89B41 EQ PUSH2 0x1A56 JUMPI DUP1 PUSH4 0x97840B3E EQ PUSH2 0x13B1 JUMPI DUP1 PUSH4 0x97D8C676 EQ PUSH2 0x1346 JUMPI DUP1 PUSH4 0x9948D16B EQ PUSH2 0x109B JUMPI DUP1 PUSH4 0x9C4E0DCE EQ PUSH2 0x104F JUMPI DUP1 PUSH4 0xA22CB465 EQ PUSH2 0xFBB JUMPI DUP1 PUSH4 0xA34B46FE EQ PUSH2 0xDB0 JUMPI DUP1 PUSH4 0xAE169A50 EQ PUSH2 0x6A3 JUMPI DUP1 PUSH4 0xB88D4FDE EQ PUSH2 0x638 JUMPI DUP1 PUSH4 0xBD097E21 EQ PUSH2 0x623 JUMPI DUP1 PUSH4 0xC87B56DD EQ PUSH2 0x592 JUMPI DUP1 PUSH4 0xDFE6B5D6 EQ PUSH2 0x4E9 JUMPI DUP1 PUSH4 0xE085F980 EQ PUSH2 0x3B0 JUMPI DUP1 PUSH4 0xE985E9C5 EQ PUSH2 0x35E JUMPI DUP1 PUSH4 0xE9D2821D EQ PUSH2 0x2FC JUMPI DUP1 PUSH4 0xF14210A6 EQ PUSH2 0x286 JUMPI DUP1 PUSH4 0xF2FDE38B EQ PUSH2 0x1FF JUMPI PUSH4 0xFD66091E EQ PUSH2 0x1BE JUMPI PUSH0 DUP1 REVERT JUMPDEST CALLVALUE PUSH2 0x1FB JUMPI PUSH1 0x20 CALLDATASIZE PUSH1 0x3 NOT ADD SLT PUSH2 0x1FB JUMPI PUSH1 0x1 PUSH1 0x1 PUSH1 0xA0 SHL SUB PUSH2 0x1DF PUSH2 0x290A JUMP JUMPDEST AND PUSH0 MSTORE PUSH1 0xE PUSH1 0x20 MSTORE PUSH1 0x20 PUSH1 0xFF PUSH1 0x40 PUSH0 KECCAK256 SLOAD AND PUSH1 0x40 MLOAD SWAP1 ISZERO ISZERO DUP2 MSTORE RETURN JUMPDEST PUSH0 DUP1 REVERT JUMPDEST CALLVALUE PUSH2 0x1FB JUMPI PUSH1 0x20 CALLDATASIZE PUSH1 0x3 NOT ADD SLT PUSH2 0x1FB JUMPI PUSH2 0x218 PUSH2 0x290A JUMP JUMPDEST PUSH2 0x220 PUSH2 0x2C65 JUMP JUMPDEST PUSH1 0x1 PUSH1 0x1 PUSH1 0xA0 SHL SUB SWAP1 DUP2 AND SWAP1 DUP2 ISZERO PUSH2 0x26E JUMPI PUSH1 0x6 SLOAD DUP3 PUSH1 0x1 PUSH1 0x1 PUSH1 0x60 SHL SUB PUSH1 0xA0 SHL DUP3 AND OR PUSH1 0x6 SSTORE AND PUSH32 0x8BE0079C531659141344CD1FD0A4F28419497F9722A3DAAFE3B4186F6B6457E0 PUSH0 DUP1 LOG3 STOP JUMPDEST PUSH1 0x40 MLOAD PUSH4 0x1E4FBDF7 PUSH1 0xE0 SHL DUP2 MSTORE PUSH0 PUSH1 0x4 DUP3 ADD MSTORE PUSH1 0x24 SWAP1 REVERT JUMPDEST CALLVALUE PUSH2 0x1FB JUMPI PUSH1 0x20 CALLDATASIZE PUSH1 0x3 NOT ADD SLT PUSH2 0x1FB JUMPI PUSH2 0x29F PUSH2 0x2C65 JUMP JUMPDEST PUSH0 DUP1 DUP1 DUP1 PUSH1 0x4 CALLDATALOAD PUSH1 0x1 DUP1 PUSH1 0xA0 SHL SUB PUSH1 0x6 SLOAD AND GAS CALL PUSH2 0x2BB PUSH2 0x2EA7 JUMP JUMPDEST POP ISZERO PUSH2 0x2C3 JUMPI STOP JUMPDEST PUSH1 0x40 MLOAD PUSH3 0x461BCD PUSH1 0xE5 SHL DUP2 MSTORE PUSH1 0x20 PUSH1 0x4 DUP3 ADD MSTORE PUSH1 0x11 PUSH1 0x24 DUP3 ADD MSTORE PUSH17 0x15DA5D1A191C985DD85B0819985A5B1959 PUSH1 0x7A SHL PUSH1 0x44 DUP3 ADD MSTORE PUSH1 0x64 SWAP1 REVERT JUMPDEST CALLVALUE PUSH2 0x1FB JUMPI PUSH1 0x20 CALLDATASIZE PUSH1 0x3 NOT ADD SLT PUSH2 0x1FB JUMPI CALLER PUSH0 MSTORE PUSH1 0xE PUSH1 0x20 MSTORE PUSH1 0xFF PUSH1 0x40 PUSH0 KECCAK256 SLOAD AND DUP1 ISZERO PUSH2 0x34A JUMPI JUMPDEST PUSH2 0x32D SWAP1 PUSH2 0x2FF8 JUMP JUMPDEST PUSH1 0x4 CALLDATALOAD PUSH0 SWAP1 DUP2 MSTORE PUSH1 0xA PUSH1 0x20 MSTORE PUSH1 0x40 SWAP1 KECCAK256 PUSH1 0x9 ADD DUP1 SLOAD PUSH1 0xFF NOT AND SWAP1 SSTORE STOP JUMPDEST POP PUSH1 0x6 SLOAD PUSH1 0x1 PUSH1 0x1 PUSH1 0xA0 SHL SUB AND CALLER EQ PUSH2 0x324 JUMP JUMPDEST CALLVALUE PUSH2 0x1FB JUMPI PUSH1 0x40 CALLDATASIZE PUSH1 0x3 NOT ADD SLT PUSH2 0x1FB JUMPI PUSH2 0x377 PUSH2 0x290A JUMP JUMPDEST PUSH2 0x37F PUSH2 0x2920 JUMP JUMPDEST SWAP1 PUSH1 0x1 DUP1 PUSH1 0xA0 SHL SUB DUP1 SWAP2 AND PUSH0 MSTORE PUSH1 0x5 PUSH1 0x20 MSTORE PUSH1 0x40 PUSH0 KECCAK256 SWAP2 AND PUSH0 MSTORE PUSH1 0x20 MSTORE PUSH1 0x20 PUSH1 0xFF PUSH1 0x40 PUSH0 KECCAK256 SLOAD AND PUSH1 0x40 MLOAD SWAP1 ISZERO ISZERO DUP2 MSTORE RETURN JUMPDEST CALLVALUE PUSH2 0x1FB JUMPI PUSH1 0x20 CALLDATASIZE PUSH1 0x3 NOT ADD SLT PUSH2 0x1FB JUMPI PUSH1 0x4 CALLDATALOAD PUSH0 MSTORE PUSH1 0xA PUSH1 0x20 MSTORE PUSH1 0x40 PUSH0 KECCAK256 DUP1 SLOAD PUSH1 0x1 DUP3 ADD PUSH2 0x3DE SWAP1 PUSH2 0x2B26 JUMP JUMPDEST SWAP2 PUSH2 0x3EB PUSH1 0x2 DUP3 ADD PUSH2 0x2B26 JUMP JUMPDEST PUSH2 0x3F7 PUSH1 0x3 DUP4 ADD PUSH2 0x2B26 JUMP JUMPDEST SWAP2 PUSH1 0x4 DUP2 ADD SLOAD SWAP3 PUSH1 0x5 DUP3 ADD SLOAD SWAP4 PUSH1 0x1 PUSH1 0xA0 SHL PUSH1 0x1 SWAP1 SUB SWAP5 DUP6 PUSH1 0x6 DUP6 ADD SLOAD AND PUSH1 0x7 DUP6 ADD SLOAD SWAP2 PUSH1 0x8 DUP7 ADD SLOAD SWAP4 PUSH1 0x9 DUP8 ADD SLOAD PUSH1 0xFF AND SWAP6 PUSH1 0xA DUP9 ADD SLOAD SWAP8 PUSH1 0xB ADD SLOAD SWAP9 PUSH1 0x40 MLOAD SWAP13 DUP14 SWAP13 DUP14 MSTORE DUP13 PUSH2 0x1E0 PUSH1 0x20 DUP2 SWAP3 ADD MSTORE DUP14 ADD PUSH2 0x452 SWAP2 PUSH2 0x2957 JUMP JUMPDEST DUP13 DUP2 SUB PUSH1 0x40 DUP15 ADD MSTORE PUSH2 0x463 SWAP2 PUSH2 0x2957 JUMP JUMPDEST DUP12 DUP2 SUB PUSH1 0x60 DUP14 ADD MSTORE PUSH2 0x474 SWAP2 PUSH2 0x2957 JUMP JUMPDEST SWAP9 DUP2 AND PUSH1 0x80 DUP12 ADD MSTORE DUP1 PUSH1 0xA0 SHR PUSH1 0xFF AND PUSH2 0x48C DUP2 PUSH2 0x2A49 JUMP JUMPDEST PUSH1 0xA0 DUP12 ADD MSTORE PUSH2 0x4A5 PUSH1 0xC0 DUP12 ADD PUSH1 0xFF PUSH1 0xA8 DUP5 SWAP1 SHR AND PUSH2 0x2A53 JUMP JUMPDEST PUSH1 0xB0 SHR PUSH1 0xFF AND PUSH2 0x4B4 DUP2 PUSH2 0x2A49 JUMP JUMPDEST PUSH1 0xE0 DUP11 ADD MSTORE PUSH2 0x100 DUP10 ADD MSTORE PUSH2 0x120 DUP9 ADD MSTORE PUSH2 0x140 DUP8 ADD MSTORE PUSH2 0x160 DUP7 ADD MSTORE ISZERO ISZERO PUSH2 0x180 DUP6 ADD MSTORE PUSH2 0x1A0 DUP5 ADD MSTORE PUSH2 0x1C0 DUP4 ADD MSTORE SUB SWAP1 RETURN JUMPDEST CALLVALUE PUSH2 0x1FB JUMPI PUSH0 CALLDATASIZE PUSH1 0x3 NOT ADD SLT PUSH2 0x1FB JUMPI PUSH1 0x8 SLOAD PUSH0 NOT DUP1 DUP3 ADD SWAP1 PUSH0 DUP4 DUP4 GT PUSH2 0x57E JUMPI PUSH1 0xF SLOAD SWAP4 PUSH1 0x9 SLOAD SWAP3 DUP4 ADD SWAP3 DUP4 GT PUSH2 0x57E JUMPI PUSH1 0x1 SWAP1 JUMPDEST DUP1 DUP3 LT PUSH2 0x554 JUMPI POP POP SWAP1 PUSH2 0x550 SWAP2 PUSH1 0x40 MLOAD SWAP5 DUP6 SWAP5 DUP6 SWAP1 SWAP5 SWAP4 SWAP3 PUSH1 0x60 SWAP3 PUSH1 0x80 DUP4 ADD SWAP7 DUP4 MSTORE PUSH1 0x20 DUP4 ADD MSTORE PUSH1 0x40 DUP3 ADD MSTORE ADD MSTORE JUMP JUMPDEST SUB SWAP1 RETURN JUMPDEST SWAP1 SWAP2 PUSH2 0x572 PUSH2 0x578 SWAP2 DUP5 PUSH0 MSTORE PUSH1 0xA DUP1 PUSH1 0x20 MSTORE PUSH1 0x40 PUSH0 KECCAK256 ADD SLOAD SWAP1 PUSH2 0x3049 JUMP JUMPDEST SWAP3 PUSH2 0x303B JUMP JUMPDEST SWAP1 PUSH2 0x51F JUMP JUMPDEST PUSH4 0x4E487B71 PUSH1 0xE0 SHL PUSH0 MSTORE PUSH1 0x11 PUSH1 0x4 MSTORE PUSH1 0x24 PUSH0 REVERT JUMPDEST CALLVALUE PUSH2 0x1FB JUMPI PUSH1 0x20 CALLDATASIZE PUSH1 0x3 NOT ADD SLT PUSH2 0x1FB JUMPI PUSH1 0x4 CALLDATALOAD PUSH1 0x1 PUSH1 0x1 PUSH1 0xA0 SHL SUB PUSH2 0x5B7 DUP3 PUSH2 0x2E6D JUMP JUMPDEST AND ISZERO PUSH2 0x5E7 JUMPI PUSH0 MSTORE PUSH1 0xD PUSH1 0x20 MSTORE PUSH2 0x550 PUSH2 0x5D3 PUSH1 0x40 PUSH0 KECCAK256 PUSH2 0x2B26 JUMP JUMPDEST PUSH1 0x40 MLOAD SWAP2 DUP3 SWAP2 PUSH1 0x20 DUP4 MSTORE PUSH1 0x20 DUP4 ADD SWAP1 PUSH2 0x2957 JUMP JUMPDEST PUSH1 0x40 MLOAD PUSH3 0x461BCD PUSH1 0xE5 SHL DUP2 MSTORE PUSH1 0x20 PUSH1 0x4 DUP3 ADD MSTORE PUSH1 0x14 PUSH1 0x24 DUP3 ADD MSTORE PUSH20 0x151BDAD95B88191BD95CC81B9BDD08195E1A5CDD PUSH1 0x62 SHL PUSH1 0x44 DUP3 ADD MSTORE PUSH1 0x64 SWAP1 REVERT JUMPDEST PUSH0 CALLDATASIZE PUSH1 0x3 NOT ADD SLT PUSH2 0x1FB JUMPI PUSH2 0x636 PUSH2 0x2C65 JUMP JUMPDEST STOP JUMPDEST CALLVALUE PUSH2 0x1FB JUMPI PUSH1 0x80 CALLDATASIZE PUSH1 0x3 NOT ADD SLT PUSH2 0x1FB JUMPI PUSH2 0x651 PUSH2 0x290A JUMP JUMPDEST PUSH2 0x659 PUSH2 0x2920 JUMP JUMPDEST SWAP1 PUSH1 0x44 CALLDATALOAD PUSH1 0x64 CALLDATALOAD SWAP3 PUSH1 0x1 PUSH1 0x1 PUSH1 0x40 SHL SUB DUP5 GT PUSH2 0x1FB JUMPI CALLDATASIZE PUSH1 0x23 DUP6 ADD SLT ISZERO PUSH2 0x1FB JUMPI PUSH2 0x691 PUSH2 0x636 SWAP5 CALLDATASIZE SWAP1 PUSH1 0x24 DUP2 PUSH1 0x4 ADD CALLDATALOAD SWAP2 ADD PUSH2 0x2BE2 JUMP JUMPDEST SWAP3 PUSH2 0x69D DUP4 DUP4 DUP4 PUSH2 0x2C91 JUMP JUMPDEST CALLER PUSH2 0x2ED6 JUMP JUMPDEST CALLVALUE PUSH2 0x1FB JUMPI PUSH1 0x20 DUP1 PUSH1 0x3 NOT CALLDATASIZE ADD SLT PUSH2 0x1FB JUMPI PUSH1 0x4 CALLDATALOAD PUSH1 0x2 SWAP2 DUP3 PUSH1 0x7 SLOAD EQ PUSH2 0xD9E JUMPI DUP3 PUSH1 0x7 SSTORE DUP2 PUSH0 MSTORE PUSH1 0xB DUP2 MSTORE PUSH1 0x40 PUSH0 KECCAK256 CALLER PUSH0 MSTORE DUP2 MSTORE PUSH1 0x40 PUSH0 KECCAK256 PUSH1 0x4 DUP2 ADD SWAP4 DUP5 SLOAD SWAP5 PUSH1 0xFF DUP7 AND ISZERO PUSH2 0xD6A JUMPI PUSH1 0xFF DUP7 PUSH1 0x8 SHR AND PUSH2 0xD33 JUMPI DUP5 PUSH0 MSTORE PUSH1 0xA DUP5 MSTORE PUSH2 0x100 PUSH1 0x40 PUSH0 KECCAK256 SWAP7 PUSH2 0xFF00 NOT AND OR SWAP1 SSTORE PUSH1 0x4 DUP6 ADD SWAP2 PUSH1 0xFF DUP4 SLOAD PUSH1 0xB0 SHR AND PUSH2 0x725 DUP2 PUSH2 0x2A49 JUMP JUMPDEST DUP1 PUSH2 0xBE9 JUMPI POP PUSH1 0x9 SLOAD SWAP1 PUSH2 0x738 DUP3 PUSH2 0x303B JUMP JUMPDEST PUSH1 0x9 SSTORE PUSH1 0x40 MLOAD PUSH2 0x747 DUP2 PUSH2 0x2AEA JUMP JUMPDEST PUSH0 DUP2 MSTORE CALLER ISZERO PUSH2 0xBD1 JUMPI PUSH0 DUP4 DUP2 MSTORE DUP5 DUP8 MSTORE PUSH1 0x40 SWAP1 KECCAK256 SLOAD PUSH1 0x1 PUSH1 0x1 PUSH1 0xA0 SHL SUB SWAP1 DUP2 AND PUSH2 0xB8C JUMPI DUP4 PUSH0 MSTORE DUP5 DUP8 MSTORE PUSH1 0x40 PUSH0 KECCAK256 SLOAD AND DUP4 DUP2 ISZERO ISZERO SWAP2 DUP3 PUSH2 0xB5B JUMPI JUMPDEST CALLER PUSH0 MSTORE PUSH1 0x3 DUP10 MSTORE PUSH1 0x40 PUSH0 KECCAK256 SWAP7 PUSH1 0x1 SWAP8 DUP9 DUP2 SLOAD ADD SWAP1 SSTORE DUP3 PUSH0 MSTORE DUP10 MSTORE PUSH1 0x40 PUSH0 KECCAK256 CALLER PUSH1 0x1 PUSH1 0x1 PUSH1 0x60 SHL SUB PUSH1 0xA0 SHL DUP3 SLOAD AND OR SWAP1 SSTORE CALLER SWAP1 PUSH32 0xDDF252AD1BE2C89B69C2B068FC378DAA952BA7F163C4A11628F55A4DF523B3EF PUSH0 DUP1 LOG4 PUSH2 0xB43 JUMPI CALLER EXTCODESIZE PUSH2 0xA55 JUMPI JUMPDEST POP PUSH1 0x5 DUP3 SWAP2 ADD SSTORE CALLER PUSH0 MSTORE PUSH1 0xC DUP5 MSTORE PUSH1 0x4 PUSH1 0x40 PUSH0 KECCAK256 ADD DUP1 SLOAD PUSH1 0x1 PUSH1 0x40 SHL DUP2 LT ISZERO PUSH2 0xA2D JUMPI DUP4 DUP2 ADD DUP1 DUP4 SSTORE DUP2 LT ISZERO PUSH2 0xA41 JUMPI DUP3 SWAP2 PUSH0 MSTORE DUP6 PUSH0 KECCAK256 ADD SSTORE PUSH2 0x825 DUP6 PUSH2 0x31EF JUMP JUMPDEST SWAP1 PUSH2 0x8B0 PUSH1 0x41 PUSH2 0x844 PUSH1 0xFF DUP8 SLOAD PUSH1 0xA0 SHR AND PUSH2 0x83F DUP2 PUSH2 0x2A49 JUMP JUMPDEST PUSH2 0x31EF JUMP JUMPDEST SWAP4 PUSH1 0x40 MLOAD SWAP5 DUP6 SWAP2 PUSH32 0x68747470733A2F2F6261736571756573742E6170702F6170692F62616467652F DUP11 DUP5 ADD MSTORE PUSH2 0x883 DUP2 MLOAD DUP1 SWAP3 DUP13 PUSH1 0x40 DUP8 ADD SWAP2 ADD PUSH2 0x2936 JUMP JUMPDEST DUP3 ADD PUSH1 0x2F PUSH1 0xF8 SHL PUSH1 0x40 DUP3 ADD MSTORE PUSH2 0x8A1 DUP3 MLOAD DUP1 SWAP4 DUP13 DUP8 DUP6 ADD SWAP2 ADD PUSH2 0x2936 JUMP JUMPDEST ADD SUB PUSH1 0x21 DUP2 ADD DUP6 MSTORE ADD DUP4 PUSH2 0x2B05 JUMP JUMPDEST PUSH0 MSTORE PUSH1 0xD DUP5 MSTORE PUSH1 0x40 PUSH0 KECCAK256 SWAP2 DUP2 MLOAD SWAP2 PUSH1 0x1 PUSH1 0x1 PUSH1 0x40 SHL SUB DUP4 GT PUSH2 0xA2D JUMPI PUSH2 0x8D6 DUP5 SLOAD PUSH2 0x2A60 JUMP JUMPDEST PUSH1 0x1F DUP2 GT PUSH2 0x9E7 JUMPI JUMPDEST POP DUP6 SWAP1 PUSH1 0x1F DUP5 GT PUSH1 0x1 EQ PUSH2 0x97E JUMPI SWAP3 DUP1 PUSH1 0xFF SWAP6 SWAP4 DUP2 SWAP4 PUSH1 0x5 SWAP9 SWAP7 PUSH0 SWAP5 PUSH2 0x973 JUMPI JUMPDEST POP POP SHL SWAP2 PUSH0 NOT SWAP1 PUSH1 0x3 SHL SHR NOT AND OR SWAP1 SSTORE JUMPDEST CALLER PUSH0 MSTORE PUSH1 0xC DUP5 MSTORE PUSH1 0x1 PUSH1 0x40 PUSH0 KECCAK256 ADD PUSH2 0x929 DUP2 SLOAD PUSH2 0x303B JUMP JUMPDEST SWAP1 SSTORE SLOAD PUSH1 0xB0 SHR AND SWAP4 ADD SLOAD SWAP1 PUSH1 0x40 MLOAD SWAP4 PUSH2 0x941 DUP2 PUSH2 0x2A49 JUMP JUMPDEST DUP5 MSTORE DUP4 ADD MSTORE PUSH32 0x7DBAFD50F1A2A8E0853F65054EB024C174DA1BB76B664AD997927D8FD98BCF7E PUSH1 0x40 CALLER SWAP4 LOG3 PUSH1 0x1 PUSH1 0x7 SSTORE STOP JUMPDEST ADD MLOAD SWAP3 POP DUP12 DUP1 PUSH2 0x900 JUMP JUMPDEST SWAP1 PUSH1 0x1F SWAP4 SWAP3 SWAP4 NOT DUP4 AND SWAP2 DUP6 PUSH0 MSTORE DUP8 PUSH0 KECCAK256 SWAP3 PUSH0 JUMPDEST DUP10 DUP3 DUP3 LT PUSH2 0x9D3 JUMPI POP POP SWAP2 PUSH1 0x5 SWAP8 SWAP6 SWAP4 SWAP2 DUP6 PUSH1 0xFF SWAP9 SWAP7 SWAP5 LT PUSH2 0x9BB JUMPI JUMPDEST POP POP POP DUP2 SHL ADD SWAP1 SSTORE PUSH2 0x911 JUMP JUMPDEST ADD MLOAD PUSH0 NOT PUSH1 0xF8 DUP5 PUSH1 0x3 SHL AND SHR NOT AND SWAP1 SSTORE DUP10 DUP1 DUP1 PUSH2 0x9AE JUMP JUMPDEST DUP4 DUP6 ADD MLOAD DUP7 SSTORE SWAP5 DUP8 ADD SWAP5 SWAP4 DUP5 ADD SWAP4 ADD PUSH2 0x991 JUMP JUMPDEST DUP5 PUSH0 MSTORE DUP7 PUSH0 KECCAK256 PUSH1 0x1F DUP6 ADD PUSH1 0x5 SHR DUP2 ADD SWAP2 DUP9 DUP7 LT PUSH2 0xA23 JUMPI JUMPDEST PUSH1 0x1F ADD PUSH1 0x5 SHR ADD SWAP1 DUP4 SWAP1 JUMPDEST DUP3 DUP2 LT PUSH2 0xA18 JUMPI POP POP PUSH2 0x8DF JUMP JUMPDEST PUSH0 DUP2 SSTORE ADD DUP4 SWAP1 PUSH2 0xA0A JUMP JUMPDEST SWAP1 SWAP2 POP DUP2 SWAP1 PUSH2 0x9FF JUMP JUMPDEST PUSH4 0x4E487B71 PUSH1 0xE0 SHL PUSH0 MSTORE PUSH1 0x41 PUSH1 0x4 MSTORE PUSH1 0x24 PUSH0 REVERT JUMPDEST PUSH4 0x4E487B71 PUSH1 0xE0 SHL PUSH0 MSTORE PUSH1 0x32 PUSH1 0x4 MSTORE PUSH1 0x24 PUSH0 REVERT JUMPDEST PUSH1 0x40 SWAP8 SWAP7 SWAP6 SWAP8 MLOAD DUP9 DUP2 DUP1 PUSH2 0xA91 PUSH4 0xA85BD01 PUSH1 0xE1 SHL SWAP6 DUP7 DUP4 MSTORE CALLER PUSH1 0x4 DUP5 ADD MSTORE PUSH0 PUSH1 0x24 DUP5 ADD MSTORE DUP9 PUSH1 0x44 DUP5 ADD MSTORE PUSH1 0x80 PUSH1 0x64 DUP5 ADD MSTORE PUSH1 0x84 DUP4 ADD SWAP1 PUSH2 0x2957 JUMP JUMPDEST SUB DUP2 PUSH0 CALLER GAS CALL PUSH0 SWAP2 DUP2 PUSH2 0xB03 JUMPI JUMPDEST POP PUSH2 0xAD1 JUMPI DUP9 PUSH2 0xAAD PUSH2 0x2EA7 JUMP JUMPDEST DUP1 MLOAD SWAP2 SWAP1 DUP3 PUSH2 0xACE JUMPI PUSH1 0x40 MLOAD PUSH4 0x32505749 PUSH1 0xE1 SHL DUP2 MSTORE CALLER PUSH1 0x4 DUP3 ADD MSTORE PUSH1 0x24 SWAP1 REVERT JUMPDEST ADD REVERT JUMPDEST SWAP7 SWAP8 SWAP6 SWAP7 PUSH1 0x1 PUSH1 0x1 PUSH1 0xE0 SHL SUB NOT AND SUB PUSH2 0xAEB JUMPI PUSH1 0x5 PUSH2 0x7E3 JUMP JUMPDEST PUSH1 0x40 MLOAD PUSH4 0x32505749 PUSH1 0xE1 SHL DUP2 MSTORE CALLER PUSH1 0x4 DUP3 ADD MSTORE PUSH1 0x24 SWAP1 REVERT JUMPDEST SWAP1 SWAP2 POP DUP10 DUP2 DUP2 RETURNDATASIZE DUP4 GT PUSH2 0xB3C JUMPI JUMPDEST PUSH2 0xB1B DUP2 DUP4 PUSH2 0x2B05 JUMP JUMPDEST DUP2 ADD SUB SLT PUSH2 0x1FB JUMPI MLOAD PUSH1 0x1 PUSH1 0x1 PUSH1 0xE0 SHL SUB NOT DUP2 AND DUP2 SUB PUSH2 0x1FB JUMPI SWAP1 DUP11 PUSH2 0xA9F JUMP JUMPDEST POP RETURNDATASIZE PUSH2 0xB11 JUMP JUMPDEST PUSH1 0x40 MLOAD PUSH4 0x39E35637 PUSH1 0xE1 SHL DUP2 MSTORE PUSH0 PUSH1 0x4 DUP3 ADD MSTORE PUSH1 0x24 SWAP1 REVERT JUMPDEST PUSH0 DUP3 DUP2 MSTORE PUSH1 0x4 PUSH1 0x20 MSTORE PUSH1 0x40 DUP1 DUP3 KECCAK256 DUP1 SLOAD PUSH1 0x1 PUSH1 0x1 PUSH1 0xA0 SHL SUB NOT AND SWAP1 SSTORE DUP3 DUP3 MSTORE PUSH1 0x3 DUP12 MSTORE SWAP1 KECCAK256 DUP1 SLOAD PUSH0 NOT ADD SWAP1 SSTORE PUSH2 0x782 JUMP JUMPDEST PUSH1 0x40 MLOAD PUSH3 0x461BCD PUSH1 0xE5 SHL DUP2 MSTORE PUSH1 0x4 DUP2 ADD DUP9 SWAP1 MSTORE PUSH1 0x1F PUSH1 0x24 DUP3 ADD MSTORE PUSH32 0x536F756C626F756E643A205472616E73666572206E6F7420616C6C6F77656400 PUSH1 0x44 DUP3 ADD MSTORE PUSH1 0x64 SWAP1 REVERT JUMPDEST PUSH1 0x40 MLOAD PUSH4 0x32505749 PUSH1 0xE1 SHL DUP2 MSTORE PUSH0 PUSH1 0x4 DUP3 ADD MSTORE PUSH1 0x24 SWAP1 REVERT JUMPDEST SWAP1 POP PUSH2 0xBF4 DUP2 PUSH2 0x2A49 JUMP JUMPDEST PUSH1 0x1 DUP2 SUB PUSH2 0xCC6 JUMPI POP POP PUSH1 0x6 DUP5 ADD SLOAD PUSH1 0x1 PUSH1 0x1 PUSH1 0xA0 SHL SUB AND DUP1 ISZERO PUSH2 0xC91 JUMPI PUSH1 0x5 DUP6 ADD SLOAD PUSH1 0x40 MLOAD PUSH4 0xA9059CBB PUSH1 0xE0 SHL DUP2 MSTORE CALLER PUSH1 0x4 DUP3 ADD MSTORE PUSH1 0x24 DUP2 ADD SWAP2 SWAP1 SWAP2 MSTORE SWAP2 SWAP1 DUP4 SWAP1 DUP4 SWAP1 PUSH1 0x44 SWAP1 DUP3 SWAP1 PUSH0 SWAP1 GAS CALL SWAP1 DUP2 ISZERO PUSH2 0xC86 JUMPI PUSH1 0x5 SWAP3 PUSH1 0xFF SWAP3 PUSH2 0xC59 JUMPI JUMPDEST POP PUSH2 0x911 JUMP JUMPDEST PUSH2 0xC78 SWAP1 DUP6 RETURNDATASIZE DUP8 GT PUSH2 0xC7F JUMPI JUMPDEST PUSH2 0xC70 DUP2 DUP4 PUSH2 0x2B05 JUMP JUMPDEST DUP2 ADD SWAP1 PUSH2 0x31D7 JUMP JUMPDEST POP DUP7 PUSH2 0xC53 JUMP JUMPDEST POP RETURNDATASIZE PUSH2 0xC66 JUMP JUMPDEST PUSH1 0x40 MLOAD RETURNDATASIZE PUSH0 DUP3 RETURNDATACOPY RETURNDATASIZE SWAP1 REVERT JUMPDEST PUSH1 0x40 MLOAD PUSH3 0x461BCD PUSH1 0xE5 SHL DUP2 MSTORE PUSH1 0x4 DUP2 ADD DUP5 SWAP1 MSTORE PUSH1 0xD PUSH1 0x24 DUP3 ADD MSTORE PUSH13 0x24B73B30B634B2103A37B5B2B7 PUSH1 0x99 SHL PUSH1 0x44 DUP3 ADD MSTORE PUSH1 0x64 SWAP1 REVERT JUMPDEST PUSH2 0xCCF DUP2 PUSH2 0x2A49 JUMP JUMPDEST EQ PUSH2 0xCDF JUMPI JUMPDEST PUSH1 0xFF PUSH1 0x5 SWAP2 PUSH2 0x911 JUMP JUMPDEST PUSH0 DUP1 DUP1 DUP1 PUSH1 0x5 DUP9 ADD SLOAD CALLER GAS CALL PUSH2 0xCF3 PUSH2 0x2EA7 JUMP JUMPDEST POP PUSH2 0xCD5 JUMPI PUSH1 0x40 MLOAD PUSH3 0x461BCD PUSH1 0xE5 SHL DUP2 MSTORE PUSH1 0x4 DUP2 ADD DUP4 SWAP1 MSTORE PUSH1 0x13 PUSH1 0x24 DUP3 ADD MSTORE PUSH19 0x115512081D1C985B9CD9995C8819985A5B1959 PUSH1 0x6A SHL PUSH1 0x44 DUP3 ADD MSTORE PUSH1 0x64 SWAP1 REVERT JUMPDEST PUSH1 0x40 MLOAD PUSH3 0x461BCD PUSH1 0xE5 SHL DUP2 MSTORE PUSH1 0x4 DUP2 ADD DUP6 SWAP1 MSTORE PUSH1 0xF PUSH1 0x24 DUP3 ADD MSTORE PUSH15 0x105B1C9958591E4818DB185A5B5959 PUSH1 0x8A SHL PUSH1 0x44 DUP3 ADD MSTORE PUSH1 0x64 SWAP1 REVERT JUMPDEST PUSH1 0x40 MLOAD PUSH3 0x461BCD PUSH1 0xE5 SHL DUP2 MSTORE PUSH1 0x4 DUP2 ADD DUP6 SWAP1 MSTORE PUSH1 0xC PUSH1 0x24 DUP3 ADD MSTORE PUSH12 0x139BDD081D995C9A599A5959 PUSH1 0xA2 SHL PUSH1 0x44 DUP3 ADD MSTORE PUSH1 0x64 SWAP1 REVERT JUMPDEST PUSH1 0x40 MLOAD PUSH4 0x3EE5AEB5 PUSH1 0xE0 SHL DUP2 MSTORE PUSH1 0x4 SWAP1 REVERT JUMPDEST CALLVALUE PUSH2 0x1FB JUMPI PUSH1 0x20 DUP1 PUSH1 0x3 NOT CALLDATASIZE ADD SLT PUSH2 0x1FB JUMPI PUSH1 0xF SLOAD SWAP1 PUSH1 0x4 CALLDATALOAD DUP3 DUP2 LT ISZERO PUSH2 0xFB4 JUMPI SWAP2 JUMPDEST PUSH2 0xDDC DUP4 PUSH2 0x33B8 JUMP JUMPDEST SWAP3 PUSH2 0xDE6 DUP2 PUSH2 0x33B8 JUMP JUMPDEST SWAP2 PUSH2 0xDF0 DUP2 PUSH2 0x33B8 JUMP JUMPDEST PUSH2 0xDF9 DUP3 PUSH2 0x33B8 JUMP JUMPDEST SWAP2 PUSH0 JUMPDEST DUP2 DUP2 LT PUSH2 0xF5F JUMPI POP PUSH0 JUMPDEST DUP2 DUP2 LT PUSH2 0xEB1 JUMPI POP POP PUSH0 JUMPDEST DUP4 DUP2 LT PUSH2 0xE6E JUMPI POP POP POP POP PUSH1 0x40 MLOAD SWAP2 PUSH1 0x40 DUP4 ADD PUSH1 0x40 DUP5 MSTORE DUP5 MLOAD DUP1 SWAP2 MSTORE DUP2 PUSH1 0x60 DUP6 ADD SWAP6 ADD SWAP1 PUSH0 JUMPDEST DUP2 DUP2 LT PUSH2 0xE51 JUMPI DUP6 DUP8 SUB DUP5 DUP8 ADD MSTORE DUP6 DUP1 PUSH2 0x550 DUP10 DUP9 PUSH2 0x2A16 JUMP JUMPDEST DUP3 MLOAD PUSH1 0x1 PUSH1 0x1 PUSH1 0xA0 SHL SUB AND DUP8 MSTORE SWAP6 DUP4 ADD SWAP6 SWAP2 DUP4 ADD SWAP2 PUSH1 0x1 ADD PUSH2 0xE37 JUMP JUMPDEST PUSH2 0xEAC SWAP1 PUSH1 0x1 PUSH1 0x1 PUSH1 0xA0 SHL SUB PUSH2 0xE84 DUP3 DUP6 PUSH2 0x33EA JUMP JUMPDEST MLOAD AND PUSH2 0xE90 DUP3 DUP11 PUSH2 0x33EA JUMP JUMPDEST MSTORE PUSH2 0xE9B DUP2 DUP6 PUSH2 0x33EA JUMP JUMPDEST MLOAD PUSH2 0xEA6 DUP3 DUP9 PUSH2 0x33EA JUMP JUMPDEST MSTORE PUSH2 0x303B JUMP JUMPDEST PUSH2 0xE11 JUMP JUMPDEST PUSH1 0x1 DUP2 ADD DUP1 DUP3 GT PUSH2 0x57E JUMPI JUMPDEST DUP3 DUP2 LT PUSH2 0xED3 JUMPI POP PUSH2 0xECE SWAP1 PUSH2 0x303B JUMP JUMPDEST PUSH2 0xE06 JUMP JUMPDEST PUSH2 0xEF7 SWAP1 PUSH2 0xEE1 DUP4 DUP8 PUSH2 0x33EA JUMP JUMPDEST MLOAD PUSH2 0xEEC DUP3 DUP9 PUSH2 0x33EA JUMP JUMPDEST MLOAD GT PUSH2 0xEFC JUMPI PUSH2 0x303B JUMP JUMPDEST PUSH2 0xEBD JUMP JUMPDEST PUSH2 0xF06 DUP2 DUP8 PUSH2 0x33EA JUMP JUMPDEST MLOAD PUSH2 0xF11 DUP5 DUP9 PUSH2 0x33EA JUMP JUMPDEST MLOAD PUSH2 0xF1C DUP4 DUP10 PUSH2 0x33EA JUMP JUMPDEST MSTORE PUSH2 0xF27 DUP5 DUP9 PUSH2 0x33EA JUMP JUMPDEST MSTORE PUSH1 0x1 PUSH1 0x1 PUSH1 0xA0 SHL SUB DUP1 PUSH2 0xF3B DUP4 DUP9 PUSH2 0x33EA JUMP JUMPDEST MLOAD AND SWAP1 PUSH2 0xF48 DUP6 DUP9 PUSH2 0x33EA JUMP JUMPDEST MLOAD AND PUSH2 0xF54 DUP4 DUP9 PUSH2 0x33EA JUMP JUMPDEST MSTORE PUSH2 0xEA6 DUP5 DUP8 PUSH2 0x33EA JUMP JUMPDEST DUP1 PUSH2 0xF6C PUSH2 0xFAF SWAP3 PUSH2 0x29E1 JUMP JUMPDEST SWAP1 SLOAD PUSH1 0x1 PUSH1 0x1 PUSH1 0xA0 SHL SUB SWAP2 PUSH1 0x3 SWAP2 SWAP1 DUP3 SHL SHR DUP3 AND PUSH2 0xF8A DUP5 DUP9 PUSH2 0x33EA JUMP JUMPDEST MSTORE PUSH2 0xF94 DUP4 PUSH2 0x29E1 JUMP JUMPDEST SWAP1 SLOAD SWAP2 SHL SHR AND PUSH0 MSTORE PUSH1 0xC DUP9 MSTORE PUSH1 0x40 PUSH0 KECCAK256 SLOAD PUSH2 0xEA6 DUP3 DUP8 PUSH2 0x33EA JUMP JUMPDEST PUSH2 0xDFC JUMP JUMPDEST POP DUP2 PUSH2 0xDD3 JUMP JUMPDEST CALLVALUE PUSH2 0x1FB JUMPI PUSH2 0xFC9 CALLDATASIZE PUSH2 0x2C36 JUMP JUMPDEST PUSH1 0x1 PUSH1 0x1 PUSH1 0xA0 SHL SUB SWAP1 SWAP2 AND SWAP1 DUP2 ISZERO PUSH2 0x1036 JUMPI CALLER PUSH0 MSTORE PUSH1 0x5 PUSH1 0x20 MSTORE PUSH1 0x40 PUSH0 KECCAK256 DUP3 PUSH0 MSTORE PUSH1 0x20 MSTORE PUSH2 0x1006 DUP2 PUSH1 0x40 PUSH0 KECCAK256 SWAP1 PUSH1 0xFF DUP1 NOT DUP4 SLOAD AND SWAP2 ISZERO ISZERO AND OR SWAP1 SSTORE JUMP JUMPDEST PUSH1 0x40 MLOAD SWAP1 ISZERO ISZERO DUP2 MSTORE PUSH32 0x17307EAB39AB6107E8899845AD3D59BD9653F200F220920489CA2B5937696C31 PUSH1 0x20 CALLER SWAP3 LOG3 STOP JUMPDEST PUSH1 0x40 MLOAD PUSH4 0xB611743 PUSH1 0xE3 SHL DUP2 MSTORE PUSH1 0x4 DUP2 ADD DUP4 SWAP1 MSTORE PUSH1 0x24 SWAP1 REVERT JUMPDEST CALLVALUE PUSH2 0x1FB JUMPI PUSH1 0x40 CALLDATASIZE PUSH1 0x3 NOT ADD SLT PUSH2 0x1FB JUMPI PUSH2 0x1068 PUSH2 0x2920 JUMP JUMPDEST PUSH1 0x4 CALLDATALOAD PUSH0 MSTORE PUSH1 0xB PUSH1 0x20 MSTORE PUSH1 0x40 PUSH0 KECCAK256 SWAP1 PUSH1 0x1 DUP1 PUSH1 0xA0 SHL SUB AND PUSH0 MSTORE PUSH1 0x20 MSTORE PUSH1 0x20 PUSH1 0xFF PUSH1 0x4 PUSH1 0x40 PUSH0 KECCAK256 ADD SLOAD AND PUSH1 0x40 MLOAD SWAP1 ISZERO ISZERO DUP2 MSTORE RETURN JUMPDEST CALLVALUE PUSH2 0x1FB JUMPI PUSH1 0x60 CALLDATASIZE PUSH1 0x3 NOT ADD SLT PUSH2 0x1FB JUMPI PUSH2 0x10B4 PUSH2 0x2920 JUMP JUMPDEST CALLER PUSH0 MSTORE PUSH1 0x20 PUSH1 0xE DUP2 MSTORE PUSH1 0xFF PUSH1 0x40 PUSH0 KECCAK256 SLOAD AND DUP1 ISZERO PUSH2 0x1332 JUMPI JUMPDEST PUSH2 0x10D5 SWAP1 PUSH2 0x2FF8 JUMP JUMPDEST PUSH1 0x4 CALLDATALOAD SWAP1 DUP2 PUSH0 MSTORE PUSH1 0xA SWAP1 DUP2 DUP2 MSTORE PUSH2 0x10F5 PUSH1 0xFF PUSH1 0x9 PUSH1 0x40 PUSH0 KECCAK256 ADD SLOAD AND PUSH2 0x3062 JUMP JUMPDEST DUP3 PUSH0 MSTORE DUP2 DUP2 MSTORE PUSH2 0x110E PUSH1 0x7 PUSH1 0x40 PUSH0 KECCAK256 ADD SLOAD TIMESTAMP LT ISZERO PUSH2 0x30A1 JUMP JUMPDEST DUP3 PUSH0 MSTORE DUP2 DUP2 MSTORE PUSH2 0x1127 PUSH1 0x8 PUSH1 0x40 PUSH0 KECCAK256 ADD SLOAD TIMESTAMP GT ISZERO PUSH2 0x30E1 JUMP JUMPDEST DUP3 PUSH0 MSTORE PUSH1 0xB DUP2 MSTORE PUSH1 0x40 PUSH0 KECCAK256 SWAP4 PUSH1 0x1 DUP1 PUSH1 0xA0 SHL SUB SWAP3 DUP4 DUP3 AND SWAP6 DUP7 PUSH0 MSTORE DUP4 MSTORE PUSH1 0x2 PUSH1 0x40 PUSH0 KECCAK256 ADD SLOAD PUSH2 0x12F9 JUMPI SWAP2 PUSH32 0x2EA420E0202CF18329AD26F1843532349F5C2413BE864D969EB33135EEB35173 SWAP4 SWAP2 PUSH1 0x40 SWAP4 DUP7 PUSH0 MSTORE DUP1 DUP4 MSTORE DUP5 PUSH0 KECCAK256 PUSH2 0x1198 PUSH1 0xB DUP3 ADD SLOAD DUP1 ISZERO SWAP1 DUP2 ISZERO PUSH2 0x12EC JUMPI JUMPDEST POP PUSH2 0x311D JUMP JUMPDEST DUP6 MLOAD PUSH2 0x11A3 DUP2 PUSH2 0x2A98 JUMP JUMPDEST DUP10 DUP2 MSTORE PUSH1 0x5 DUP10 PUSH2 0x124A DUP13 DUP9 DUP1 DUP7 ADD DUP5 DUP2 MSTORE DUP13 DUP8 ADD TIMESTAMP DUP2 MSTORE PUSH1 0x60 DUP9 ADD SWAP2 PUSH1 0x44 CALLDATALOAD SWAP14 DUP15 DUP5 MSTORE PUSH1 0x80 DUP11 ADD SWAP6 PUSH1 0x1 DUP8 MSTORE PUSH1 0xA0 DUP12 ADD SWAP6 PUSH0 DUP8 MSTORE PUSH1 0xC0 DUP13 ADD SWAP10 PUSH0 DUP12 MSTORE PUSH0 MSTORE PUSH1 0xB DUP2 MSTORE PUSH1 0x40 PUSH0 KECCAK256 SWAP2 PUSH0 MSTORE MSTORE DUP16 PUSH0 KECCAK256 SWAP10 MLOAD AND PUSH1 0x1 PUSH1 0x1 PUSH1 0x60 SHL SUB PUSH1 0xA0 SHL DUP11 SLOAD AND OR DUP10 SSTORE MLOAD PUSH1 0x1 DUP10 ADD SSTORE MLOAD PUSH1 0x2 DUP9 ADD SSTORE MLOAD PUSH1 0x3 DUP8 ADD SSTORE PUSH2 0x1233 PUSH1 0x4 DUP8 ADD SWAP3 MLOAD ISZERO ISZERO DUP4 SWAP1 PUSH1 0xFF DUP1 NOT DUP4 SLOAD AND SWAP2 ISZERO ISZERO AND OR SWAP1 SSTORE JUMP JUMPDEST MLOAD DUP2 SLOAD PUSH2 0xFF00 NOT AND SWAP1 ISZERO ISZERO PUSH1 0x8 SHL PUSH2 0xFF00 AND OR SWAP1 SSTORE JUMP JUMPDEST MLOAD SWAP2 ADD SSTORE ADD PUSH2 0x1259 DUP2 SLOAD PUSH2 0x303B JUMP JUMPDEST SWAP1 SSTORE DUP7 PUSH0 MSTORE PUSH1 0x10 DUP3 MSTORE PUSH1 0xFF DUP5 PUSH0 KECCAK256 SLOAD AND ISZERO PUSH2 0x12C8 JUMPI JUMPDEST POP PUSH1 0xC DUP2 MSTORE DUP3 PUSH0 KECCAK256 PUSH2 0x1281 DUP2 SLOAD PUSH2 0x303B JUMP JUMPDEST DUP2 SSTORE PUSH1 0x3 DUP2 ADD SWAP1 PUSH3 0x15180 PUSH2 0x1297 DUP4 SLOAD TIMESTAMP PUSH2 0x31A6 JUMP JUMPDEST GT PUSH2 0x12BC JUMPI PUSH1 0x2 ADD PUSH2 0x12A9 DUP2 SLOAD PUSH2 0x303B JUMP JUMPDEST SWAP1 SSTORE JUMPDEST TIMESTAMP SWAP1 SSTORE DUP3 MLOAD SWAP2 DUP3 MSTORE TIMESTAMP SWAP1 DUP3 ADD MSTORE LOG3 STOP JUMPDEST PUSH1 0x2 PUSH1 0x1 SWAP2 ADD SSTORE PUSH2 0x12AC JUMP JUMPDEST PUSH2 0x12D1 SWAP1 PUSH2 0x3169 JUMP JUMPDEST DUP6 PUSH0 MSTORE PUSH1 0x10 DUP2 MSTORE DUP3 PUSH0 KECCAK256 PUSH1 0x1 PUSH1 0xFF NOT DUP3 SLOAD AND OR SWAP1 SSTORE DUP7 PUSH2 0x126F JUMP JUMPDEST SWAP1 POP DUP4 DUP4 ADD SLOAD LT DUP12 PUSH2 0x1192 JUMP JUMPDEST PUSH1 0x40 MLOAD PUSH3 0x461BCD PUSH1 0xE5 SHL DUP2 MSTORE PUSH1 0x4 DUP2 ADD DUP5 SWAP1 MSTORE PUSH1 0x11 PUSH1 0x24 DUP3 ADD MSTORE PUSH17 0x105B1C9958591E4818DBDB5C1B195D1959 PUSH1 0x7A SHL PUSH1 0x44 DUP3 ADD MSTORE PUSH1 0x64 SWAP1 REVERT JUMPDEST POP PUSH1 0x6 SLOAD PUSH1 0x1 PUSH1 0x1 PUSH1 0xA0 SHL SUB AND CALLER EQ PUSH2 0x10CC JUMP JUMPDEST CALLVALUE PUSH2 0x1FB JUMPI PUSH1 0x20 PUSH32 0x1B06338D0EDF2BA8CCEE31E466AB37B376418209AF6A85C55C51E89A51E33BDE PUSH2 0x1377 CALLDATASIZE PUSH2 0x2C36 JUMP JUMPDEST SWAP3 SWAP1 PUSH2 0x1381 PUSH2 0x2C65 JUMP JUMPDEST PUSH1 0x1 PUSH1 0x1 PUSH1 0xA0 SHL SUB AND PUSH0 DUP2 DUP2 MSTORE PUSH1 0xE DUP4 MSTORE PUSH1 0x40 SWAP1 KECCAK256 DUP1 SLOAD PUSH1 0xFF NOT AND PUSH1 0xFF DUP7 ISZERO ISZERO AND OR SWAP1 SSTORE SWAP3 PUSH1 0x40 MLOAD SWAP1 ISZERO ISZERO DUP2 MSTORE LOG2 STOP JUMPDEST CALLVALUE PUSH2 0x1FB JUMPI PUSH2 0x160 CALLDATASIZE PUSH1 0x3 NOT ADD SLT PUSH2 0x1FB JUMPI PUSH1 0x4 CALLDATALOAD PUSH1 0x1 PUSH1 0x1 PUSH1 0x40 SHL SUB DUP2 GT PUSH2 0x1FB JUMPI PUSH2 0x13E2 SWAP1 CALLDATASIZE SWAP1 PUSH1 0x4 ADD PUSH2 0x2C18 JUMP JUMPDEST PUSH1 0x24 CALLDATALOAD PUSH1 0x1 PUSH1 0x1 PUSH1 0x40 SHL SUB DUP2 GT PUSH2 0x1FB JUMPI PUSH2 0x1401 SWAP1 CALLDATASIZE SWAP1 PUSH1 0x4 ADD PUSH2 0x2C18 JUMP JUMPDEST PUSH1 0x44 CALLDATALOAD PUSH1 0x1 PUSH1 0x1 PUSH1 0x40 SHL SUB DUP2 GT PUSH2 0x1FB JUMPI PUSH2 0x1420 SWAP1 CALLDATASIZE SWAP1 PUSH1 0x4 ADD PUSH2 0x2C18 JUMP JUMPDEST PUSH1 0x64 CALLDATALOAD SWAP2 SWAP1 PUSH1 0x1 PUSH1 0x1 PUSH1 0xA0 SHL SUB DUP4 AND DUP4 SUB PUSH2 0x1FB JUMPI PUSH1 0x3 PUSH1 0x84 CALLDATALOAD LT ISZERO PUSH2 0x1FB JUMPI PUSH1 0x4 PUSH1 0xA4 CALLDATALOAD LT ISZERO PUSH2 0x1FB JUMPI PUSH1 0x3 PUSH1 0xC4 CALLDATALOAD LT ISZERO PUSH2 0x1FB JUMPI PUSH2 0x104 CALLDATALOAD PUSH1 0x1 PUSH1 0x1 PUSH1 0xA0 SHL SUB DUP2 AND DUP2 SUB PUSH2 0x1FB JUMPI CALLER PUSH0 MSTORE PUSH1 0xE PUSH1 0x20 MSTORE PUSH1 0xFF PUSH1 0x40 PUSH0 KECCAK256 SLOAD AND DUP1 ISZERO PUSH2 0x1A42 JUMPI JUMPDEST PUSH2 0x148A SWAP1 PUSH2 0x2FF8 JUMP JUMPDEST PUSH1 0x8 SLOAD SWAP4 PUSH2 0x1497 DUP6 PUSH2 0x303B JUMP JUMPDEST PUSH1 0x8 SSTORE PUSH2 0x14A7 PUSH2 0x124 CALLDATALOAD TIMESTAMP PUSH2 0x3049 JUMP JUMPDEST SWAP3 PUSH1 0x40 MLOAD SWAP5 PUSH2 0x14B5 DUP7 PUSH2 0x2AB3 JUMP JUMPDEST DUP7 DUP7 MSTORE PUSH1 0x20 DUP7 ADD DUP9 SWAP1 MSTORE PUSH1 0x40 DUP7 ADD MSTORE PUSH1 0x60 DUP6 ADD MSTORE PUSH1 0x1 PUSH1 0x1 PUSH1 0xA0 SHL SUB AND PUSH1 0x80 DUP5 ADD MSTORE PUSH2 0x14E2 PUSH1 0x84 CALLDATALOAD PUSH2 0x2A49 JUMP JUMPDEST PUSH1 0x84 CALLDATALOAD PUSH1 0xA0 DUP5 ADD MSTORE PUSH2 0x14F9 PUSH1 0xA4 CALLDATALOAD PUSH1 0xC0 DUP6 ADD PUSH2 0x3056 JUMP JUMPDEST PUSH2 0x1504 PUSH1 0xC4 CALLDATALOAD PUSH2 0x2A49 JUMP JUMPDEST PUSH1 0xC4 CALLDATALOAD PUSH1 0xE0 DUP5 ADD MSTORE PUSH1 0xE4 CALLDATALOAD PUSH2 0x100 DUP5 ADD MSTORE PUSH1 0x1 DUP1 PUSH1 0xA0 SHL SUB AND PUSH2 0x120 DUP4 ADD MSTORE TIMESTAMP PUSH2 0x140 DUP4 ADD MSTORE PUSH2 0x160 DUP3 ADD MSTORE PUSH1 0x1 PUSH2 0x180 DUP3 ADD MSTORE PUSH0 PUSH2 0x1A0 DUP3 ADD MSTORE PUSH2 0x144 CALLDATALOAD PUSH2 0x1C0 DUP3 ADD MSTORE DUP2 PUSH0 MSTORE PUSH1 0xA PUSH1 0x20 MSTORE PUSH1 0x40 PUSH0 KECCAK256 DUP2 MLOAD DUP2 SSTORE PUSH1 0x20 DUP3 ADD MLOAD DUP1 MLOAD SWAP1 PUSH1 0x1 PUSH1 0x1 PUSH1 0x40 SHL SUB DUP3 GT PUSH2 0xA2D JUMPI DUP2 SWAP1 PUSH2 0x157E PUSH1 0x1 DUP6 ADD SLOAD PUSH2 0x2A60 JUMP JUMPDEST PUSH1 0x1F DUP2 GT PUSH2 0x19F2 JUMPI JUMPDEST POP PUSH1 0x20 SWAP1 PUSH1 0x1F DUP4 GT PUSH1 0x1 EQ PUSH2 0x1987 JUMPI PUSH0 SWAP3 PUSH2 0x197C JUMPI JUMPDEST POP POP DUP2 PUSH1 0x1 SHL SWAP2 PUSH0 NOT SWAP1 PUSH1 0x3 SHL SHR NOT AND OR PUSH1 0x1 DUP3 ADD SSTORE JUMPDEST PUSH1 0x40 DUP3 ADD MLOAD DUP1 MLOAD SWAP1 PUSH1 0x1 PUSH1 0x1 PUSH1 0x40 SHL SUB DUP3 GT PUSH2 0xA2D JUMPI DUP2 SWAP1 PUSH2 0x15D9 PUSH1 0x2 DUP6 ADD SLOAD PUSH2 0x2A60 JUMP JUMPDEST PUSH1 0x1F DUP2 GT PUSH2 0x192C JUMPI JUMPDEST POP PUSH1 0x20 SWAP1 PUSH1 0x1F DUP4 GT PUSH1 0x1 EQ PUSH2 0x18C1 JUMPI PUSH0 SWAP3 PUSH2 0x18B6 JUMPI JUMPDEST POP POP DUP2 PUSH1 0x1 SHL SWAP2 PUSH0 NOT SWAP1 PUSH1 0x3 SHL SHR NOT AND OR PUSH1 0x2 DUP3 ADD SSTORE JUMPDEST PUSH1 0x60 DUP3 ADD MLOAD DUP1 MLOAD SWAP1 PUSH1 0x1 PUSH1 0x1 PUSH1 0x40 SHL SUB DUP3 GT PUSH2 0xA2D JUMPI DUP2 SWAP1 PUSH2 0x1634 PUSH1 0x3 DUP6 ADD SLOAD PUSH2 0x2A60 JUMP JUMPDEST PUSH1 0x1F DUP2 GT PUSH2 0x1866 JUMPI JUMPDEST POP PUSH1 0x20 SWAP1 PUSH1 0x1F DUP4 GT PUSH1 0x1 EQ PUSH2 0x17F8 JUMPI PUSH0 SWAP3 PUSH2 0x17ED JUMPI JUMPDEST POP POP DUP2 PUSH1 0x1 SHL SWAP2 PUSH0 NOT SWAP1 PUSH1 0x3 SHL SHR NOT AND OR PUSH1 0x3 DUP3 ADD SSTORE JUMPDEST PUSH1 0x1 DUP1 PUSH1 0xA0 SHL SUB PUSH1 0x80 DUP4 ADD MLOAD AND SWAP4 PUSH1 0x4 DUP3 ADD SLOAD SWAP1 PUSH1 0xA0 DUP5 ADD MLOAD SWAP3 PUSH2 0x168D DUP5 PUSH2 0x2A49 JUMP JUMPDEST PUSH2 0x1696 DUP5 PUSH2 0x2A49 JUMP JUMPDEST PUSH1 0xC0 DUP6 ADD MLOAD SWAP3 PUSH1 0x4 DUP5 LT ISZERO PUSH2 0x17D9 JUMPI PUSH2 0x1C0 DUP7 PUSH32 0x21D08DBF39036D0F432F747B54E1710FBBFE3328509CBFD2FFBBD12BFF13CF91 SWAP7 PUSH2 0x17AD SWAP7 PUSH1 0xB SWAP5 PUSH1 0x20 SWAP13 PUSH1 0xE0 DUP14 SWAP13 ADD MLOAD PUSH2 0x16E4 DUP2 PUSH2 0x2A49 JUMP JUMPDEST PUSH2 0x16ED DUP2 PUSH2 0x2A49 JUMP JUMPDEST PUSH1 0xFF PUSH1 0xB0 SHL SWAP1 PUSH1 0xB0 SHL AND SWAP4 PUSH1 0xFF PUSH1 0xA0 SHL SWAP1 PUSH1 0xA0 SHL AND SWAP2 PUSH9 0xFFFFFFFFFFFFFFFFFF PUSH1 0xB8 SHL AND OR OR SWAP1 PUSH1 0xFF PUSH1 0xA8 SHL SWAP1 PUSH1 0xA8 SHL AND OR OR PUSH1 0x4 DUP6 ADD SSTORE PUSH2 0x100 DUP2 ADD MLOAD PUSH1 0x5 DUP6 ADD SSTORE PUSH1 0x6 DUP5 ADD PUSH1 0x1 DUP1 PUSH1 0xA0 SHL SUB PUSH2 0x120 DUP4 ADD MLOAD AND PUSH1 0x1 PUSH1 0x1 PUSH1 0x60 SHL SUB PUSH1 0xA0 SHL DUP3 SLOAD AND OR SWAP1 SSTORE PUSH2 0x140 DUP2 ADD MLOAD PUSH1 0x7 DUP6 ADD SSTORE PUSH2 0x160 DUP2 ADD MLOAD PUSH1 0x8 DUP6 ADD SSTORE PUSH2 0x1789 PUSH2 0x180 DUP3 ADD MLOAD ISZERO ISZERO PUSH1 0x9 DUP7 ADD SWAP1 PUSH1 0xFF DUP1 NOT DUP4 SLOAD AND SWAP2 ISZERO ISZERO AND OR SWAP1 SSTORE JUMP JUMPDEST PUSH2 0x1A0 DUP2 ADD MLOAD PUSH1 0xA DUP6 ADD SSTORE ADD MLOAD SWAP2 ADD SSTORE PUSH1 0x40 MLOAD SWAP2 DUP3 SWAP2 PUSH1 0x60 DUP4 MSTORE PUSH1 0x60 DUP4 ADD SWAP1 PUSH2 0x2957 JUMP JUMPDEST PUSH2 0x17B8 PUSH1 0x84 CALLDATALOAD PUSH2 0x2A49 JUMP JUMPDEST PUSH1 0x84 CALLDATALOAD DUP8 DUP4 ADD MSTORE PUSH2 0x17CE PUSH1 0x40 DUP4 ADD PUSH1 0xA4 CALLDATALOAD PUSH2 0x2A53 JUMP JUMPDEST SUB SWAP1 LOG2 PUSH1 0x40 MLOAD SWAP1 DUP2 MSTORE RETURN JUMPDEST PUSH4 0x4E487B71 PUSH1 0xE0 SHL PUSH0 MSTORE PUSH1 0x21 PUSH1 0x4 MSTORE PUSH1 0x24 PUSH0 REVERT JUMPDEST ADD MLOAD SWAP1 POP DUP7 DUP1 PUSH2 0x1653 JUMP JUMPDEST SWAP3 POP PUSH1 0x3 DUP5 ADD PUSH0 MSTORE PUSH1 0x20 PUSH0 KECCAK256 SWAP1 PUSH0 SWAP4 JUMPDEST PUSH1 0x1F NOT DUP5 AND DUP6 LT PUSH2 0x184B JUMPI PUSH1 0x1 SWAP5 POP DUP4 PUSH1 0x1F NOT DUP2 AND LT PUSH2 0x1833 JUMPI JUMPDEST POP POP POP DUP2 SHL ADD PUSH1 0x3 DUP3 ADD SSTORE PUSH2 0x166A JUMP JUMPDEST ADD MLOAD PUSH0 NOT PUSH1 0xF8 DUP5 PUSH1 0x3 SHL AND SHR NOT AND SWAP1 SSTORE DUP7 DUP1 DUP1 PUSH2 0x1823 JUMP JUMPDEST DUP2 DUP2 ADD MLOAD DUP4 SSTORE PUSH1 0x20 SWAP5 DUP6 ADD SWAP5 PUSH1 0x1 SWAP1 SWAP4 ADD SWAP3 SWAP1 SWAP2 ADD SWAP1 PUSH2 0x1808 JUMP JUMPDEST SWAP1 SWAP2 POP PUSH1 0x3 DUP5 ADD PUSH0 MSTORE PUSH1 0x20 PUSH0 KECCAK256 PUSH1 0x1F DUP5 ADD PUSH1 0x5 SHR DUP2 ADD PUSH1 0x20 DUP6 LT PUSH2 0x18AF JUMPI JUMPDEST SWAP1 DUP5 SWAP4 SWAP3 SWAP2 JUMPDEST PUSH1 0x1F DUP4 ADD PUSH1 0x5 SHR DUP3 ADD DUP2 LT PUSH2 0x18A1 JUMPI POP POP PUSH2 0x163D JUMP JUMPDEST PUSH0 DUP2 SSTORE DUP6 SWAP5 POP PUSH1 0x1 ADD PUSH2 0x188B JUMP JUMPDEST POP DUP1 PUSH2 0x1885 JUMP JUMPDEST ADD MLOAD SWAP1 POP DUP7 DUP1 PUSH2 0x15F8 JUMP JUMPDEST PUSH1 0x2 DUP6 ADD PUSH0 SWAP1 DUP2 MSTORE PUSH1 0x20 DUP2 KECCAK256 SWAP4 POP PUSH1 0x1F NOT DUP6 AND SWAP1 JUMPDEST DUP2 DUP2 LT PUSH2 0x1914 JUMPI POP SWAP1 DUP5 PUSH1 0x1 SWAP6 SWAP5 SWAP4 SWAP3 LT PUSH2 0x18FC JUMPI JUMPDEST POP POP POP DUP2 SHL ADD PUSH1 0x2 DUP3 ADD SSTORE PUSH2 0x160F JUMP JUMPDEST ADD MLOAD PUSH0 NOT PUSH1 0xF8 DUP5 PUSH1 0x3 SHL AND SHR NOT AND SWAP1 SSTORE DUP7 DUP1 DUP1 PUSH2 0x18EC JUMP JUMPDEST SWAP3 SWAP4 PUSH1 0x20 PUSH1 0x1 DUP2 SWAP3 DUP8 DUP7 ADD MLOAD DUP2 SSTORE ADD SWAP6 ADD SWAP4 ADD PUSH2 0x18D6 JUMP JUMPDEST SWAP1 SWAP2 POP PUSH1 0x2 DUP5 ADD PUSH0 MSTORE PUSH1 0x20 PUSH0 KECCAK256 PUSH1 0x1F DUP5 ADD PUSH1 0x5 SHR DUP2 ADD PUSH1 0x20 DUP6 LT PUSH2 0x1975 JUMPI JUMPDEST SWAP1 DUP5 SWAP4 SWAP3 SWAP2 JUMPDEST PUSH1 0x1F DUP4 ADD PUSH1 0x5 SHR DUP3 ADD DUP2 LT PUSH2 0x1967 JUMPI POP POP PUSH2 0x15E2 JUMP JUMPDEST PUSH0 DUP2 SSTORE DUP6 SWAP5 POP PUSH1 0x1 ADD PUSH2 0x1951 JUMP JUMPDEST POP DUP1 PUSH2 0x194B JUMP JUMPDEST ADD MLOAD SWAP1 POP DUP7 DUP1 PUSH2 0x159D JUMP JUMPDEST PUSH1 0x1 DUP6 ADD PUSH0 SWAP1 DUP2 MSTORE PUSH1 0x20 DUP2 KECCAK256 SWAP4 POP PUSH1 0x1F NOT DUP6 AND SWAP1 JUMPDEST DUP2 DUP2 LT PUSH2 0x19DA JUMPI POP SWAP1 DUP5 PUSH1 0x1 SWAP6 SWAP5 SWAP4 SWAP3 LT PUSH2 0x19C2 JUMPI JUMPDEST POP POP POP DUP2 SHL ADD PUSH1 0x1 DUP3 ADD SSTORE PUSH2 0x15B4 JUMP JUMPDEST ADD MLOAD PUSH0 NOT PUSH1 0xF8 DUP5 PUSH1 0x3 SHL AND SHR NOT AND SWAP1 SSTORE DUP7 DUP1 DUP1 PUSH2 0x19B2 JUMP JUMPDEST SWAP3 SWAP4 PUSH1 0x20 PUSH1 0x1 DUP2 SWAP3 DUP8 DUP7 ADD MLOAD DUP2 SSTORE ADD SWAP6 ADD SWAP4 ADD PUSH2 0x199C JUMP JUMPDEST SWAP1 SWAP2 POP PUSH1 0x1 DUP5 ADD PUSH0 MSTORE PUSH1 0x20 PUSH0 KECCAK256 PUSH1 0x1F DUP5 ADD PUSH1 0x5 SHR DUP2 ADD PUSH1 0x20 DUP6 LT PUSH2 0x1A3B JUMPI JUMPDEST SWAP1 DUP5 SWAP4 SWAP3 SWAP2 JUMPDEST PUSH1 0x1F DUP4 ADD PUSH1 0x5 SHR DUP3 ADD DUP2 LT PUSH2 0x1A2D JUMPI POP POP PUSH2 0x1587 JUMP JUMPDEST PUSH0 DUP2 SSTORE DUP6 SWAP5 POP PUSH1 0x1 ADD PUSH2 0x1A17 JUMP JUMPDEST POP DUP1 PUSH2 0x1A11 JUMP JUMPDEST POP PUSH1 0x6 SLOAD PUSH1 0x1 PUSH1 0x1 PUSH1 0xA0 SHL SUB AND CALLER EQ PUSH2 0x1481 JUMP JUMPDEST CALLVALUE PUSH2 0x1FB JUMPI PUSH0 CALLDATASIZE PUSH1 0x3 NOT ADD SLT PUSH2 0x1FB JUMPI PUSH1 0x40 MLOAD PUSH0 PUSH1 0x1 DUP1 SLOAD SWAP1 PUSH2 0x1A78 DUP3 PUSH2 0x2A60 JUMP JUMPDEST DUP1 DUP6 MSTORE SWAP2 DUP2 DUP2 AND SWAP1 DUP2 ISZERO PUSH2 0x1AF7 JUMPI POP PUSH1 0x1 EQ PUSH2 0x1A9F JUMPI JUMPDEST PUSH2 0x550 DUP5 PUSH2 0x5D3 DUP2 DUP7 SUB DUP3 PUSH2 0x2B05 JUMP JUMPDEST PUSH0 DUP2 DUP2 MSTORE SWAP3 POP PUSH32 0xB10E2D527612073B26EECDFD717E6A320CF44B4AFAC2B0732D9FCBE2B7FA0CF6 JUMPDEST DUP3 DUP5 LT PUSH2 0x1ADF JUMPI POP POP POP DUP2 ADD PUSH1 0x20 ADD PUSH2 0x5D3 DUP3 PUSH2 0x1A8F JUMP JUMPDEST DUP1 SLOAD PUSH1 0x20 DUP6 DUP8 ADD DUP2 ADD SWAP2 SWAP1 SWAP2 MSTORE SWAP1 SWAP4 ADD SWAP3 DUP2 ADD PUSH2 0x1AC7 JUMP JUMPDEST PUSH1 0xFF NOT AND PUSH1 0x20 DUP1 DUP8 ADD SWAP2 SWAP1 SWAP2 MSTORE SWAP3 ISZERO ISZERO PUSH1 0x5 SHL DUP6 ADD SWAP1 SWAP3 ADD SWAP3 POP PUSH2 0x5D3 SWAP2 POP DUP4 SWAP1 POP PUSH2 0x1A8F JUMP JUMPDEST CALLVALUE PUSH2 0x1FB JUMPI PUSH0 CALLDATASIZE PUSH1 0x3 NOT ADD SLT PUSH2 0x1FB JUMPI PUSH1 0x6 SLOAD PUSH1 0x40 MLOAD PUSH1 0x1 PUSH1 0x1 PUSH1 0xA0 SHL SUB SWAP1 SWAP2 AND DUP2 MSTORE PUSH1 0x20 SWAP1 RETURN JUMPDEST CALLVALUE PUSH2 0x1FB JUMPI PUSH1 0x20 CALLDATASIZE PUSH1 0x3 NOT ADD SLT PUSH2 0x1FB JUMPI PUSH1 0x1 PUSH1 0x1 PUSH1 0xA0 SHL SUB PUSH2 0x1B67 PUSH2 0x290A JUMP JUMPDEST AND PUSH0 SWAP1 DUP2 MSTORE PUSH1 0xC PUSH1 0x20 SWAP1 DUP2 MSTORE PUSH1 0x40 SWAP2 DUP3 SWAP1 KECCAK256 DUP1 SLOAD PUSH1 0x1 DUP3 ADD SLOAD PUSH1 0x2 DUP4 ADD SLOAD PUSH1 0x3 SWAP1 SWAP4 ADD SLOAD DUP6 MLOAD SWAP3 DUP4 MSTORE SWAP4 DUP3 ADD MSTORE SWAP3 DUP4 ADD MSTORE PUSH1 0x60 DUP3 ADD MSTORE PUSH1 0x80 SWAP1 RETURN JUMPDEST CALLVALUE PUSH2 0x1FB JUMPI PUSH0 CALLDATASIZE PUSH1 0x3 NOT ADD SLT PUSH2 0x1FB JUMPI PUSH2 0x1BBA PUSH2 0x2C65 JUMP JUMPDEST PUSH1 0x6 DUP1 SLOAD PUSH1 0x1 PUSH1 0x1 PUSH1 0xA0 SHL SUB NOT DUP2 AND SWAP1 SWAP2 SSTORE PUSH0 SWAP1 PUSH1 0x1 PUSH1 0x1 PUSH1 0xA0 SHL SUB AND PUSH32 0x8BE0079C531659141344CD1FD0A4F28419497F9722A3DAAFE3B4186F6B6457E0 DUP3 DUP1 LOG3 STOP JUMPDEST CALLVALUE PUSH2 0x1FB JUMPI PUSH1 0x20 CALLDATASIZE PUSH1 0x3 NOT ADD SLT PUSH2 0x1FB JUMPI PUSH1 0x1 PUSH1 0x1 PUSH1 0xA0 SHL SUB PUSH2 0x1C1E PUSH2 0x290A JUMP JUMPDEST AND DUP1 ISZERO PUSH2 0x1C3B JUMPI PUSH0 MSTORE PUSH1 0x3 PUSH1 0x20 MSTORE PUSH1 0x20 PUSH1 0x40 PUSH0 KECCAK256 SLOAD PUSH1 0x40 MLOAD SWAP1 DUP2 MSTORE RETURN JUMPDEST PUSH1 0x40 MLOAD PUSH4 0x22718AD9 PUSH1 0xE2 SHL DUP2 MSTORE PUSH0 PUSH1 0x4 DUP3 ADD MSTORE PUSH1 0x24 SWAP1 REVERT JUMPDEST CALLVALUE PUSH2 0x1FB JUMPI PUSH1 0x20 CALLDATASIZE PUSH1 0x3 NOT ADD SLT PUSH2 0x1FB JUMPI PUSH1 0x4 CALLDATALOAD PUSH0 MSTORE PUSH1 0xD PUSH1 0x20 MSTORE PUSH2 0x550 PUSH2 0x5D3 PUSH1 0x40 PUSH0 KECCAK256 PUSH2 0x2B26 JUMP JUMPDEST CALLVALUE PUSH2 0x1FB JUMPI PUSH1 0x20 CALLDATASIZE PUSH1 0x3 NOT ADD SLT PUSH2 0x1FB JUMPI PUSH1 0x20 PUSH2 0x1C9B PUSH1 0x4 CALLDATALOAD PUSH2 0x2E6D JUMP JUMPDEST PUSH1 0x40 MLOAD PUSH1 0x1 PUSH1 0x1 PUSH1 0xA0 SHL SUB SWAP1 SWAP2 AND DUP2 MSTORE RETURN JUMPDEST CALLVALUE PUSH2 0x1FB JUMPI PUSH1 0x40 CALLDATASIZE PUSH1 0x3 NOT ADD SLT PUSH2 0x1FB JUMPI PUSH1 0xE0 PUSH2 0x1CC8 PUSH2 0x2920 JUMP JUMPDEST PUSH1 0x4 CALLDATALOAD PUSH0 MSTORE PUSH1 0xB PUSH1 0x20 MSTORE PUSH1 0x40 PUSH0 KECCAK256 PUSH1 0x1 DUP1 PUSH1 0xA0 SHL SUB DUP1 SWAP3 AND PUSH0 MSTORE PUSH1 0x20 MSTORE PUSH1 0x40 PUSH0 KECCAK256 SWAP1 DUP2 SLOAD AND SWAP1 PUSH1 0xFF PUSH1 0x1 DUP3 ADD SLOAD SWAP2 PUSH1 0x2 DUP2 ADD SLOAD PUSH1 0x3 DUP3 ADD SLOAD SWAP1 PUSH1 0x5 PUSH1 0x4 DUP5 ADD SLOAD SWAP4 ADD SLOAD SWAP5 PUSH1 0x40 MLOAD SWAP7 DUP8 MSTORE PUSH1 0x20 DUP8 ADD MSTORE PUSH1 0x40 DUP7 ADD MSTORE PUSH1 0x60 DUP6 ADD MSTORE DUP2 DUP2 AND ISZERO ISZERO PUSH1 0x80 DUP6 ADD MSTORE PUSH1 0x8 SHR AND ISZERO ISZERO PUSH1 0xA0 DUP4 ADD MSTORE PUSH1 0xC0 DUP3 ADD MSTORE RETURN JUMPDEST CALLVALUE PUSH2 0x1FB JUMPI PUSH1 0x20 DUP1 PUSH1 0x3 NOT CALLDATASIZE ADD SLT PUSH2 0x1FB JUMPI PUSH2 0x1D57 PUSH2 0x290A JUMP JUMPDEST PUSH1 0x60 PUSH1 0x80 PUSH1 0x40 MLOAD PUSH2 0x1D67 DUP2 PUSH2 0x2ACF JUMP JUMPDEST PUSH0 DUP2 MSTORE PUSH0 DUP6 DUP3 ADD MSTORE PUSH0 PUSH1 0x40 DUP3 ADD MSTORE PUSH0 DUP4 DUP3 ADD MSTORE ADD MSTORE PUSH1 0x1 DUP1 PUSH1 0xA0 SHL SUB AND PUSH0 MSTORE PUSH1 0xC DUP2 MSTORE PUSH1 0x40 PUSH0 KECCAK256 PUSH2 0x550 PUSH1 0x40 MLOAD SWAP2 PUSH2 0x1D9E DUP4 PUSH2 0x2ACF JUMP JUMPDEST DUP1 SLOAD DUP4 MSTORE PUSH1 0x1 DUP2 ADD SLOAD SWAP1 DUP5 DUP5 ADD SWAP2 DUP3 MSTORE PUSH1 0x2 DUP2 ADD SLOAD PUSH1 0x40 DUP6 ADD SWAP1 DUP2 MSTORE PUSH2 0x1DD2 PUSH1 0x4 PUSH1 0x3 DUP5 ADD SLOAD SWAP4 PUSH1 0x60 DUP9 ADD SWAP5 DUP6 MSTORE ADD PUSH2 0x3355 JUMP JUMPDEST SWAP3 PUSH1 0x80 DUP7 ADD SWAP4 DUP5 MSTORE PUSH1 0x40 MLOAD SWAP7 DUP8 SWAP7 DUP2 DUP9 MSTORE MLOAD SWAP1 DUP8 ADD MSTORE MLOAD PUSH1 0x40 DUP7 ADD MSTORE MLOAD PUSH1 0x60 DUP6 ADD MSTORE MLOAD PUSH1 0x80 DUP5 ADD MSTORE MLOAD PUSH1 0xA0 DUP1 DUP5 ADD MSTORE PUSH1 0xC0 DUP4 ADD SWAP1 PUSH2 0x2A16 JUMP JUMPDEST CALLVALUE PUSH2 0x1FB JUMPI PUSH1 0x20 CALLDATASIZE PUSH1 0x3 NOT ADD SLT PUSH2 0x1FB JUMPI PUSH0 PUSH2 0x1C0 PUSH1 0x40 MLOAD PUSH2 0x1E2C DUP2 PUSH2 0x2AB3 JUMP JUMPDEST DUP3 DUP2 MSTORE PUSH1 0x60 PUSH1 0x20 DUP3 ADD MSTORE PUSH1 0x60 PUSH1 0x40 DUP3 ADD MSTORE PUSH1 0x60 DUP1 DUP3 ADD MSTORE DUP3 PUSH1 0x80 DUP3 ADD MSTORE DUP3 PUSH1 0xA0 DUP3 ADD MSTORE DUP3 PUSH1 0xC0 DUP3 ADD MSTORE DUP3 PUSH1 0xE0 DUP3 ADD MSTORE DUP3 PUSH2 0x100 DUP3 ADD MSTORE DUP3 PUSH2 0x120 DUP3 ADD MSTORE DUP3 PUSH2 0x140 DUP3 ADD MSTORE DUP3 PUSH2 0x160 DUP3 ADD MSTORE DUP3 PUSH2 0x180 DUP3 ADD MSTORE DUP3 PUSH2 0x1A0 DUP3 ADD MSTORE ADD MSTORE PUSH1 0x4 CALLDATALOAD PUSH0 MSTORE PUSH1 0xA PUSH1 0x20 MSTORE PUSH1 0x40 PUSH0 KECCAK256 PUSH1 0xB PUSH1 0x40 MLOAD SWAP2 PUSH2 0x1EA4 DUP4 PUSH2 0x2AB3 JUMP JUMPDEST DUP1 SLOAD DUP4 MSTORE PUSH2 0x1EB4 PUSH1 0x1 DUP3 ADD PUSH2 0x2B26 JUMP JUMPDEST PUSH1 0x20 DUP5 ADD MSTORE PUSH2 0x1EC5 PUSH1 0x2 DUP3 ADD PUSH2 0x2B26 JUMP JUMPDEST PUSH1 0x40 DUP5 ADD MSTORE PUSH2 0x1ED6 PUSH1 0x3 DUP3 ADD PUSH2 0x2B26 JUMP JUMPDEST PUSH1 0x60 DUP5 ADD MSTORE PUSH1 0x4 DUP2 ADD SLOAD PUSH1 0x1 PUSH1 0x1 PUSH1 0xA0 SHL SUB DUP2 AND PUSH1 0x80 DUP6 ADD MSTORE PUSH1 0xFF SWAP1 PUSH2 0x1F01 PUSH1 0xA0 DUP3 SWAP1 SHR DUP4 AND PUSH2 0x2A49 JUMP JUMPDEST DUP2 DUP2 PUSH1 0xA0 SHR AND PUSH1 0xA0 DUP7 ADD MSTORE PUSH2 0x1F1E DUP3 DUP3 PUSH1 0xA8 SHR AND PUSH1 0xC0 DUP8 ADD PUSH2 0x3056 JUMP JUMPDEST PUSH2 0x1F2C DUP3 DUP3 PUSH1 0xB0 SHR AND PUSH2 0x2A49 JUMP JUMPDEST PUSH1 0xB0 SHR AND PUSH1 0xE0 DUP5 ADD MSTORE PUSH1 0x5 DUP2 ADD SLOAD PUSH2 0x100 DUP5 ADD MSTORE PUSH1 0x1 DUP1 PUSH1 0xA0 SHL SUB PUSH1 0x6 DUP3 ADD SLOAD AND PUSH2 0x120 DUP5 ADD MSTORE PUSH1 0x7 DUP2 ADD SLOAD PUSH2 0x140 DUP5 ADD MSTORE PUSH1 0x8 DUP2 ADD SLOAD PUSH2 0x160 DUP5 ADD MSTORE PUSH1 0xFF PUSH1 0x9 DUP3 ADD SLOAD AND ISZERO ISZERO PUSH2 0x180 DUP5 ADD MSTORE PUSH1 0xA DUP2 ADD SLOAD PUSH2 0x1A0 DUP5 ADD MSTORE ADD SLOAD PUSH2 0x1C0 DUP3 ADD MSTORE PUSH1 0x40 MLOAD DUP1 SWAP2 PUSH1 0x20 DUP3 MSTORE DUP1 MLOAD PUSH1 0x20 DUP4 ADD MSTORE PUSH2 0x1C0 PUSH2 0x1FEE PUSH2 0x1FBD PUSH1 0x20 DUP5 ADD MLOAD PUSH2 0x1E0 PUSH1 0x40 DUP8 ADD MSTORE PUSH2 0x200 DUP7 ADD SWAP1 PUSH2 0x2957 JUMP JUMPDEST PUSH2 0x1FD9 PUSH1 0x40 DUP6 ADD MLOAD SWAP2 PUSH1 0x1F NOT SWAP3 DUP4 DUP9 DUP4 SUB ADD PUSH1 0x60 DUP10 ADD MSTORE PUSH2 0x2957 JUMP JUMPDEST SWAP1 PUSH1 0x60 DUP6 ADD MLOAD SWAP1 DUP7 DUP4 SUB ADD PUSH1 0x80 DUP8 ADD MSTORE PUSH2 0x2957 JUMP JUMPDEST SWAP2 PUSH1 0x1 DUP1 PUSH1 0xA0 SHL SUB PUSH1 0x80 DUP3 ADD MLOAD AND PUSH1 0xA0 DUP6 ADD MSTORE PUSH1 0xA0 DUP2 ADD MLOAD PUSH2 0x200F DUP2 PUSH2 0x2A49 JUMP JUMPDEST PUSH1 0xC0 DUP6 ADD MSTORE PUSH2 0x2026 PUSH1 0xC0 DUP3 ADD MLOAD PUSH1 0xE0 DUP7 ADD SWAP1 PUSH2 0x2A53 JUMP JUMPDEST PUSH1 0xE0 DUP2 ADD MLOAD PUSH2 0x2034 DUP2 PUSH2 0x2A49 JUMP JUMPDEST PUSH2 0x100 DUP6 ADD MSTORE PUSH2 0x100 DUP2 ADD MLOAD PUSH2 0x120 DUP6 ADD MSTORE PUSH1 0x1 DUP1 PUSH1 0xA0 SHL SUB PUSH2 0x120 DUP3 ADD MLOAD AND PUSH2 0x140 DUP6 ADD MSTORE PUSH2 0x140 DUP2 ADD MLOAD PUSH2 0x160 DUP6 ADD MSTORE PUSH2 0x160 DUP2 ADD MLOAD PUSH2 0x180 DUP6 ADD MSTORE PUSH2 0x180 DUP2 ADD MLOAD ISZERO ISZERO PUSH2 0x1A0 DUP6 ADD MSTORE PUSH2 0x1A0 DUP2 ADD MLOAD DUP3 DUP6 ADD MSTORE ADD MLOAD PUSH2 0x1E0 DUP4 ADD MSTORE SUB SWAP1 RETURN JUMPDEST CALLVALUE PUSH2 0x1FB JUMPI PUSH2 0x636 PUSH2 0x20A7 CALLDATASIZE PUSH2 0x29AC JUMP JUMPDEST SWAP1 PUSH1 0x40 MLOAD SWAP3 PUSH2 0x20B5 DUP5 PUSH2 0x2AEA JUMP JUMPDEST PUSH0 DUP5 MSTORE PUSH2 0x69D DUP4 DUP4 DUP4 PUSH2 0x2C91 JUMP JUMPDEST CALLVALUE PUSH2 0x1FB JUMPI PUSH1 0x20 CALLDATASIZE PUSH1 0x3 NOT ADD SLT PUSH2 0x1FB JUMPI PUSH1 0x1 PUSH1 0x1 PUSH1 0xA0 SHL SUB PUSH2 0x20E4 PUSH2 0x290A JUMP JUMPDEST AND PUSH0 MSTORE PUSH1 0xC PUSH1 0x20 MSTORE PUSH2 0x550 PUSH2 0x20FE PUSH1 0x4 PUSH1 0x40 PUSH0 KECCAK256 ADD PUSH2 0x3355 JUMP JUMPDEST PUSH1 0x40 MLOAD SWAP2 DUP3 SWAP2 PUSH1 0x20 DUP4 MSTORE PUSH1 0x20 DUP4 ADD SWAP1 PUSH2 0x2A16 JUMP JUMPDEST CALLVALUE PUSH2 0x1FB JUMPI PUSH1 0x20 CALLDATASIZE PUSH1 0x3 NOT ADD SLT PUSH2 0x1FB JUMPI PUSH1 0x4 CALLDATALOAD PUSH1 0xF SLOAD DUP2 LT ISZERO PUSH2 0x1FB JUMPI PUSH2 0x213B PUSH1 0x20 SWAP2 PUSH2 0x29E1 JUMP JUMPDEST SWAP1 SLOAD PUSH1 0x40 MLOAD PUSH1 0x3 SWAP3 SWAP1 SWAP3 SHL SHR PUSH1 0x1 PUSH1 0x1 PUSH1 0xA0 SHL SUB AND DUP2 MSTORE RETURN JUMPDEST CALLVALUE PUSH2 0x1FB JUMPI PUSH1 0x40 CALLDATASIZE PUSH1 0x3 NOT ADD SLT PUSH2 0x1FB JUMPI PUSH1 0xE0 PUSH2 0x216F PUSH2 0x2920 JUMP JUMPDEST PUSH0 PUSH1 0xC0 PUSH1 0x40 MLOAD PUSH2 0x217E DUP2 PUSH2 0x2A98 JUMP JUMPDEST DUP3 DUP2 MSTORE DUP3 PUSH1 0x20 DUP3 ADD MSTORE DUP3 PUSH1 0x40 DUP3 ADD MSTORE DUP3 PUSH1 0x60 DUP3 ADD MSTORE DUP3 PUSH1 0x80 DUP3 ADD MSTORE DUP3 PUSH1 0xA0 DUP3 ADD MSTORE ADD MSTORE PUSH1 0x4 CALLDATALOAD PUSH0 MSTORE PUSH1 0xB PUSH1 0x20 MSTORE PUSH1 0x40 PUSH0 KECCAK256 PUSH1 0x1 DUP1 PUSH1 0xA0 SHL SUB DUP1 SWAP3 AND PUSH0 MSTORE PUSH1 0x20 MSTORE PUSH1 0x40 PUSH0 KECCAK256 SWAP1 PUSH1 0x40 MLOAD SWAP1 PUSH2 0x21D0 DUP3 PUSH2 0x2A98 JUMP JUMPDEST DUP3 SLOAD AND SWAP2 DUP3 DUP3 MSTORE PUSH1 0x1 DUP2 ADD SLOAD SWAP1 PUSH1 0x20 DUP4 ADD SWAP2 DUP3 MSTORE PUSH1 0x2 DUP2 ADD SLOAD PUSH1 0x40 DUP5 ADD SWAP1 DUP2 MSTORE PUSH1 0x3 DUP3 ADD SLOAD SWAP1 PUSH1 0x60 DUP6 ADD SWAP2 DUP3 MSTORE PUSH1 0x4 DUP4 ADD SLOAD SWAP4 PUSH1 0xC0 PUSH1 0x5 PUSH1 0x80 DUP9 ADD SWAP6 PUSH1 0xFF DUP9 AND ISZERO ISZERO DUP8 MSTORE PUSH1 0xFF PUSH1 0xA0 DUP11 ADD SWAP9 PUSH1 0x8 SHR AND ISZERO ISZERO DUP9 MSTORE ADD SLOAD SWAP7 ADD SWAP6 DUP7 MSTORE PUSH1 0x40 MLOAD SWAP7 DUP8 MSTORE MLOAD PUSH1 0x20 DUP8 ADD MSTORE MLOAD PUSH1 0x40 DUP7 ADD MSTORE MLOAD PUSH1 0x60 DUP6 ADD MSTORE MLOAD ISZERO ISZERO PUSH1 0x80 DUP5 ADD MSTORE MLOAD ISZERO ISZERO PUSH1 0xA0 DUP4 ADD MSTORE MLOAD PUSH1 0xC0 DUP3 ADD MSTORE RETURN JUMPDEST CALLVALUE PUSH2 0x1FB JUMPI PUSH2 0x636 PUSH2 0x226B CALLDATASIZE PUSH2 0x29AC JUMP JUMPDEST SWAP2 PUSH2 0x2C91 JUMP JUMPDEST CALLVALUE PUSH2 0x1FB JUMPI PUSH1 0x60 CALLDATASIZE PUSH1 0x3 NOT ADD SLT PUSH2 0x1FB JUMPI PUSH1 0x1 PUSH1 0x1 PUSH1 0x40 SHL SUB PUSH1 0x24 CALLDATALOAD DUP2 DUP2 GT PUSH2 0x1FB JUMPI PUSH2 0x22A2 SWAP1 CALLDATASIZE SWAP1 PUSH1 0x4 ADD PUSH2 0x297C JUMP JUMPDEST SWAP2 PUSH1 0x44 CALLDATALOAD SWAP1 DUP2 GT PUSH2 0x1FB JUMPI PUSH2 0x22BB SWAP1 CALLDATASIZE SWAP1 PUSH1 0x4 ADD PUSH2 0x297C JUMP JUMPDEST SWAP2 CALLER PUSH0 MSTORE PUSH1 0xE PUSH1 0x20 MSTORE PUSH1 0xFF PUSH1 0x40 PUSH0 KECCAK256 SLOAD AND DUP1 ISZERO PUSH2 0x2652 JUMPI JUMPDEST PUSH2 0x22DC SWAP1 PUSH2 0x2FF8 JUMP JUMPDEST PUSH1 0x4 CALLDATALOAD PUSH0 MSTORE PUSH1 0xA PUSH1 0x20 MSTORE PUSH2 0x22F9 PUSH1 0xFF PUSH1 0x9 PUSH1 0x40 PUSH0 KECCAK256 ADD SLOAD AND PUSH2 0x3062 JUMP JUMPDEST PUSH1 0x4 CALLDATALOAD PUSH0 MSTORE PUSH1 0xA PUSH1 0x20 MSTORE PUSH2 0x2316 PUSH1 0x7 PUSH1 0x40 PUSH0 KECCAK256 ADD SLOAD TIMESTAMP LT ISZERO PUSH2 0x30A1 JUMP JUMPDEST PUSH1 0x4 CALLDATALOAD PUSH0 MSTORE PUSH1 0xA PUSH1 0x20 MSTORE PUSH2 0x2333 PUSH1 0x8 PUSH1 0x40 PUSH0 KECCAK256 ADD SLOAD TIMESTAMP GT ISZERO PUSH2 0x30E1 JUMP JUMPDEST DUP3 DUP5 SUB PUSH2 0x2615 JUMPI PUSH1 0x4 CALLDATALOAD PUSH0 MSTORE PUSH1 0xA PUSH1 0x20 MSTORE PUSH1 0x40 PUSH0 KECCAK256 SWAP1 PUSH0 JUMPDEST DUP6 DUP2 LT PUSH2 0x2354 JUMPI STOP JUMPDEST PUSH1 0x4 CALLDATALOAD PUSH0 SWAP1 DUP2 MSTORE PUSH1 0xB PUSH1 0x20 MSTORE PUSH1 0x40 SWAP1 KECCAK256 PUSH2 0x239C SWAP2 SWAP1 PUSH1 0x1 PUSH1 0x1 PUSH1 0xA0 SHL SUB PUSH2 0x2384 PUSH2 0x237F DUP5 DUP12 DUP9 PUSH2 0x31B3 JUMP JUMPDEST PUSH2 0x31C3 JUMP JUMPDEST AND PUSH0 MSTORE PUSH1 0x20 MSTORE PUSH1 0x2 PUSH1 0x40 PUSH0 KECCAK256 ADD SLOAD ISZERO PUSH2 0x23A1 JUMPI PUSH2 0x303B JUMP JUMPDEST PUSH2 0x234B JUMP JUMPDEST PUSH2 0x23B8 PUSH1 0xB DUP6 ADD SLOAD DUP1 ISZERO SWAP1 DUP2 ISZERO PUSH2 0x2607 JUMPI POP PUSH2 0x311D JUMP JUMPDEST PUSH2 0x23C6 PUSH2 0x237F DUP3 DUP10 DUP7 PUSH2 0x31B3 JUMP JUMPDEST PUSH2 0x23D1 DUP3 DUP9 DUP9 PUSH2 0x31B3 JUMP JUMPDEST CALLDATALOAD PUSH1 0x40 MLOAD SWAP2 PUSH2 0x23DF DUP4 PUSH2 0x2A98 JUMP JUMPDEST PUSH1 0x1 DUP1 PUSH1 0xA0 SHL SUB AND DUP3 MSTORE PUSH1 0x4 CALLDATALOAD PUSH1 0x20 DUP4 ADD MSTORE TIMESTAMP PUSH1 0x40 DUP4 ADD MSTORE PUSH1 0x60 DUP3 ADD MSTORE PUSH1 0x1 PUSH1 0x80 DUP3 ADD MSTORE PUSH0 PUSH1 0xA0 DUP3 ADD MSTORE PUSH0 PUSH1 0xC0 DUP3 ADD MSTORE PUSH1 0x4 CALLDATALOAD PUSH0 MSTORE PUSH1 0xB PUSH1 0x20 MSTORE PUSH1 0x40 PUSH0 KECCAK256 PUSH1 0x1 DUP1 PUSH1 0xA0 SHL SUB PUSH2 0x2432 PUSH2 0x237F DUP6 DUP13 DUP10 PUSH2 0x31B3 JUMP JUMPDEST AND PUSH0 MSTORE PUSH1 0x20 MSTORE PUSH1 0x5 PUSH1 0xC0 PUSH1 0x40 PUSH0 KECCAK256 SWAP3 PUSH1 0x1 DUP1 PUSH1 0xA0 SHL SUB DUP2 MLOAD AND PUSH1 0x1 PUSH1 0x1 PUSH1 0x60 SHL SUB PUSH1 0xA0 SHL DUP6 SLOAD AND OR DUP5 SSTORE PUSH1 0x20 DUP2 ADD MLOAD PUSH1 0x1 DUP6 ADD SSTORE PUSH1 0x40 DUP2 ADD MLOAD PUSH1 0x2 DUP6 ADD SSTORE PUSH1 0x60 DUP2 ADD MLOAD PUSH1 0x3 DUP6 ADD SSTORE PUSH2 0x24B8 PUSH1 0x4 DUP6 ADD PUSH2 0x249D PUSH1 0x80 DUP5 ADD MLOAD ISZERO ISZERO DUP3 SWAP1 PUSH1 0xFF DUP1 NOT DUP4 SLOAD AND SWAP2 ISZERO ISZERO AND OR SWAP1 SSTORE JUMP JUMPDEST PUSH1 0xA0 DUP4 ADD MLOAD DUP2 SLOAD PUSH2 0xFF00 NOT AND SWAP1 ISZERO ISZERO PUSH1 0x8 SHL PUSH2 0xFF00 AND OR SWAP1 SSTORE JUMP JUMPDEST ADD MLOAD SWAP2 ADD SSTORE PUSH1 0xA DUP5 ADD PUSH2 0x24CB DUP2 SLOAD PUSH2 0x303B JUMP JUMPDEST SWAP1 SSTORE PUSH1 0x1 PUSH1 0x1 PUSH1 0xA0 SHL SUB PUSH2 0x24E3 PUSH2 0x237F DUP4 DUP11 DUP8 PUSH2 0x31B3 JUMP JUMPDEST AND PUSH0 MSTORE PUSH1 0x10 PUSH1 0x20 MSTORE PUSH1 0xFF PUSH1 0x40 PUSH0 KECCAK256 SLOAD AND ISZERO PUSH2 0x25BF JUMPI JUMPDEST PUSH1 0x1 PUSH1 0x1 PUSH1 0xA0 SHL SUB PUSH2 0x250F PUSH2 0x237F DUP4 DUP11 DUP8 PUSH2 0x31B3 JUMP JUMPDEST AND PUSH0 MSTORE PUSH1 0xC PUSH1 0x20 MSTORE PUSH1 0x40 PUSH0 KECCAK256 PUSH2 0x2525 DUP2 SLOAD PUSH2 0x303B JUMP JUMPDEST DUP2 SSTORE PUSH1 0x3 DUP2 ADD SWAP1 PUSH3 0x15180 PUSH2 0x253B DUP4 SLOAD TIMESTAMP PUSH2 0x31A6 JUMP JUMPDEST GT PUSH2 0x25B3 JUMPI PUSH1 0x2 ADD PUSH2 0x254D DUP2 SLOAD PUSH2 0x303B JUMP JUMPDEST SWAP1 SSTORE JUMPDEST TIMESTAMP SWAP1 SSTORE PUSH2 0x2561 PUSH2 0x237F DUP3 DUP10 DUP7 PUSH2 0x31B3 JUMP JUMPDEST PUSH2 0x256C DUP3 DUP9 DUP9 PUSH2 0x31B3 JUMP JUMPDEST PUSH1 0x40 DUP1 MLOAD SWAP2 CALLDATALOAD DUP3 MSTORE TIMESTAMP PUSH1 0x20 DUP4 ADD MSTORE PUSH1 0x1 PUSH1 0x1 PUSH1 0xA0 SHL SUB SWAP1 SWAP3 AND SWAP2 PUSH1 0x4 CALLDATALOAD SWAP2 PUSH32 0x2EA420E0202CF18329AD26F1843532349F5C2413BE864D969EB33135EEB35173 SWAP2 SWAP1 LOG3 PUSH2 0x303B JUMP JUMPDEST PUSH1 0x2 PUSH1 0x1 SWAP2 ADD SSTORE PUSH2 0x2550 JUMP JUMPDEST PUSH2 0x25D5 PUSH2 0x25D0 PUSH2 0x237F DUP4 DUP11 DUP8 PUSH2 0x31B3 JUMP JUMPDEST PUSH2 0x3169 JUMP JUMPDEST PUSH1 0x1 PUSH1 0x1 PUSH1 0xA0 SHL SUB PUSH2 0x25EB PUSH2 0x237F DUP4 DUP11 DUP8 PUSH2 0x31B3 JUMP JUMPDEST AND PUSH0 MSTORE PUSH1 0x10 PUSH1 0x20 MSTORE PUSH1 0x40 PUSH0 KECCAK256 PUSH1 0x1 PUSH1 0xFF NOT DUP3 SLOAD AND OR SWAP1 SSTORE PUSH2 0x24F9 JUMP JUMPDEST SWAP1 POP PUSH1 0xA DUP7 ADD SLOAD LT DUP10 PUSH2 0x1192 JUMP JUMPDEST PUSH1 0x40 MLOAD PUSH3 0x461BCD PUSH1 0xE5 SHL DUP2 MSTORE PUSH1 0x20 PUSH1 0x4 DUP3 ADD MSTORE PUSH1 0x15 PUSH1 0x24 DUP3 ADD MSTORE PUSH21 0x82E4E4C2F240D8CADCCEE8D040DAD2E6DAC2E8C6D PUSH1 0x5B SHL PUSH1 0x44 DUP3 ADD MSTORE PUSH1 0x64 SWAP1 REVERT JUMPDEST POP PUSH1 0x6 SLOAD PUSH1 0x1 PUSH1 0x1 PUSH1 0xA0 SHL SUB AND CALLER EQ PUSH2 0x22D3 JUMP JUMPDEST CALLVALUE PUSH2 0x1FB JUMPI PUSH1 0x40 CALLDATASIZE PUSH1 0x3 NOT ADD SLT PUSH2 0x1FB JUMPI PUSH2 0x267F PUSH2 0x290A JUMP JUMPDEST PUSH1 0x24 CALLDATALOAD PUSH2 0x268B DUP2 PUSH2 0x2E6D JUMP JUMPDEST CALLER ISZERO ISZERO DUP1 PUSH2 0x2734 JUMPI JUMPDEST DUP1 PUSH2 0x270B JUMPI JUMPDEST PUSH2 0x26F3 JUMPI PUSH1 0x1 PUSH1 0x1 PUSH1 0xA0 SHL SUB SWAP3 DUP4 AND SWAP3 DUP3 SWAP2 DUP5 SWAP2 AND PUSH32 0x8C5BE1E5EBEC7D5BD14F71427D1E84F3DD0314C0F7B2291E5B200AC8C7C3B925 PUSH0 DUP1 LOG4 PUSH0 SWAP1 DUP2 MSTORE PUSH1 0x4 PUSH1 0x20 MSTORE PUSH1 0x40 SWAP1 KECCAK256 DUP1 SLOAD PUSH1 0x1 PUSH1 0x1 PUSH1 0xA0 SHL SUB NOT AND SWAP1 SWAP2 OR SWAP1 SSTORE STOP JUMPDEST PUSH1 0x40 MLOAD PUSH4 0xA9FBF51F PUSH1 0xE0 SHL DUP2 MSTORE CALLER PUSH1 0x4 DUP3 ADD MSTORE PUSH1 0x24 SWAP1 REVERT JUMPDEST POP PUSH1 0x1 DUP1 PUSH1 0xA0 SHL SUB DUP2 AND PUSH0 MSTORE PUSH1 0x5 PUSH1 0x20 MSTORE PUSH1 0x40 PUSH0 KECCAK256 CALLER PUSH0 MSTORE PUSH1 0x20 MSTORE PUSH1 0xFF PUSH1 0x40 PUSH0 KECCAK256 SLOAD AND ISZERO PUSH2 0x269A JUMP JUMPDEST POP PUSH1 0x1 PUSH1 0x1 PUSH1 0xA0 SHL SUB DUP2 AND CALLER EQ ISZERO PUSH2 0x2694 JUMP JUMPDEST CALLVALUE PUSH2 0x1FB JUMPI PUSH1 0x20 CALLDATASIZE PUSH1 0x3 NOT ADD SLT PUSH2 0x1FB JUMPI PUSH1 0x4 CALLDATALOAD PUSH2 0x2764 DUP2 PUSH2 0x2E6D JUMP JUMPDEST POP PUSH0 MSTORE PUSH1 0x4 PUSH1 0x20 MSTORE PUSH1 0x20 PUSH1 0x1 DUP1 PUSH1 0xA0 SHL SUB PUSH1 0x40 PUSH0 KECCAK256 SLOAD AND PUSH1 0x40 MLOAD SWAP1 DUP2 MSTORE RETURN JUMPDEST CALLVALUE PUSH2 0x1FB JUMPI PUSH0 CALLDATASIZE PUSH1 0x3 NOT ADD SLT PUSH2 0x1FB JUMPI PUSH1 0x40 MLOAD PUSH0 DUP1 SLOAD PUSH2 0x27A2 DUP2 PUSH2 0x2A60 JUMP JUMPDEST DUP1 DUP5 MSTORE SWAP1 PUSH1 0x1 SWAP1 DUP2 DUP2 AND SWAP1 DUP2 ISZERO PUSH2 0x1AF7 JUMPI POP PUSH1 0x1 EQ PUSH2 0x27CB JUMPI PUSH2 0x550 DUP5 PUSH2 0x5D3 DUP2 DUP7 SUB DUP3 PUSH2 0x2B05 JUMP JUMPDEST PUSH0 DUP1 DUP1 MSTORE SWAP3 POP PUSH32 0x290DECD9548B62A8D60345A988386FC84BA6BC95484008F6362F93160EF3E563 JUMPDEST DUP3 DUP5 LT PUSH2 0x280B JUMPI POP POP POP DUP2 ADD PUSH1 0x20 ADD PUSH2 0x5D3 DUP3 PUSH2 0x1A8F JUMP JUMPDEST DUP1 SLOAD PUSH1 0x20 DUP6 DUP8 ADD DUP2 ADD SWAP2 SWAP1 SWAP2 MSTORE SWAP1 SWAP4 ADD SWAP3 DUP2 ADD PUSH2 0x27F3 JUMP JUMPDEST CALLVALUE PUSH2 0x1FB JUMPI PUSH1 0x40 CALLDATASIZE PUSH1 0x3 NOT ADD SLT PUSH2 0x1FB JUMPI PUSH2 0x283C PUSH2 0x290A JUMP JUMPDEST PUSH2 0x2844 PUSH2 0x2C65 JUMP JUMPDEST PUSH1 0x6 SLOAD PUSH1 0x40 MLOAD PUSH4 0xA9059CBB PUSH1 0xE0 SHL DUP2 MSTORE PUSH1 0x1 PUSH1 0x1 PUSH1 0xA0 SHL SUB SWAP2 DUP3 AND PUSH1 0x4 DUP3 ADD MSTORE PUSH1 0x24 DUP1 CALLDATALOAD SWAP1 DUP3 ADD MSTORE SWAP2 PUSH1 0x20 SWAP2 DUP4 SWAP2 PUSH1 0x44 SWAP2 DUP4 SWAP2 PUSH0 SWAP2 AND GAS CALL DUP1 ISZERO PUSH2 0xC86 JUMPI PUSH2 0x2888 JUMPI STOP JUMPDEST PUSH2 0x636 SWAP1 PUSH1 0x20 RETURNDATASIZE DUP2 GT PUSH2 0xC7F JUMPI PUSH2 0xC70 DUP2 DUP4 PUSH2 0x2B05 JUMP JUMPDEST CALLVALUE PUSH2 0x1FB JUMPI PUSH1 0x20 CALLDATASIZE PUSH1 0x3 NOT ADD SLT PUSH2 0x1FB JUMPI PUSH1 0x4 CALLDATALOAD SWAP1 PUSH4 0xFFFFFFFF PUSH1 0xE0 SHL DUP3 AND DUP1 SWAP3 SUB PUSH2 0x1FB JUMPI PUSH1 0x20 SWAP2 PUSH4 0x80AC58CD PUSH1 0xE0 SHL DUP2 EQ SWAP1 DUP2 ISZERO PUSH2 0x28F9 JUMPI JUMPDEST DUP2 ISZERO PUSH2 0x28E8 JUMPI JUMPDEST POP ISZERO ISZERO DUP2 MSTORE RETURN JUMPDEST PUSH4 0x1FFC9A7 PUSH1 0xE0 SHL EQ SWAP1 POP DUP4 PUSH2 0x28E1 JUMP JUMPDEST PUSH4 0x5B5E139F PUSH1 0xE0 SHL DUP2 EQ SWAP2 POP PUSH2 0x28DA JUMP JUMPDEST PUSH1 0x4 CALLDATALOAD SWAP1 PUSH1 0x1 PUSH1 0x1 PUSH1 0xA0 SHL SUB DUP3 AND DUP3 SUB PUSH2 0x1FB JUMPI JUMP JUMPDEST PUSH1 0x24 CALLDATALOAD SWAP1 PUSH1 0x1 PUSH1 0x1 PUSH1 0xA0 SHL SUB DUP3 AND DUP3 SUB PUSH2 0x1FB JUMPI JUMP JUMPDEST PUSH0 JUMPDEST DUP4 DUP2 LT PUSH2 0x2947 JUMPI POP POP PUSH0 SWAP2 ADD MSTORE JUMP JUMPDEST DUP2 DUP2 ADD MLOAD DUP4 DUP3 ADD MSTORE PUSH1 0x20 ADD PUSH2 0x2938 JUMP JUMPDEST SWAP1 PUSH1 0x20 SWAP2 PUSH2 0x2970 DUP2 MLOAD DUP1 SWAP3 DUP2 DUP6 MSTORE DUP6 DUP1 DUP7 ADD SWAP2 ADD PUSH2 0x2936 JUMP JUMPDEST PUSH1 0x1F ADD PUSH1 0x1F NOT AND ADD ADD SWAP1 JUMP JUMPDEST SWAP2 DUP2 PUSH1 0x1F DUP5 ADD SLT ISZERO PUSH2 0x1FB JUMPI DUP3 CALLDATALOAD SWAP2 PUSH1 0x1 PUSH1 0x1 PUSH1 0x40 SHL SUB DUP4 GT PUSH2 0x1FB JUMPI PUSH1 0x20 DUP1 DUP6 ADD SWAP5 DUP5 PUSH1 0x5 SHL ADD ADD GT PUSH2 0x1FB JUMPI JUMP JUMPDEST PUSH1 0x60 SWAP1 PUSH1 0x3 NOT ADD SLT PUSH2 0x1FB JUMPI PUSH1 0x1 PUSH1 0x1 PUSH1 0xA0 SHL SUB SWAP1 PUSH1 0x4 CALLDATALOAD DUP3 DUP2 AND DUP2 SUB PUSH2 0x1FB JUMPI SWAP2 PUSH1 0x24 CALLDATALOAD SWAP1 DUP2 AND DUP2 SUB PUSH2 0x1FB JUMPI SWAP1 PUSH1 0x44 CALLDATALOAD SWAP1 JUMP JUMPDEST PUSH1 0xF SLOAD DUP2 LT ISZERO PUSH2 0xA41 JUMPI PUSH1 0xF PUSH0 MSTORE PUSH32 0x8D1108E10BCB7C27DDDFC02ED9D693A074039D026CF4EA4240B40F7D581AC802 ADD SWAP1 PUSH0 SWAP1 JUMP JUMPDEST SWAP1 DUP2 MLOAD DUP1 DUP3 MSTORE PUSH1 0x20 DUP1 DUP1 SWAP4 ADD SWAP4 ADD SWAP2 PUSH0 JUMPDEST DUP3 DUP2 LT PUSH2 0x2A35 JUMPI POP POP POP POP SWAP1 JUMP JUMPDEST DUP4 MLOAD DUP6 MSTORE SWAP4 DUP2 ADD SWAP4 SWAP3 DUP2 ADD SWAP3 PUSH1 0x1 ADD PUSH2 0x2A27 JUMP JUMPDEST PUSH1 0x3 GT ISZERO PUSH2 0x17D9 JUMPI JUMP JUMPDEST SWAP1 PUSH1 0x4 DUP3 LT ISZERO PUSH2 0x17D9 JUMPI MSTORE JUMP JUMPDEST SWAP1 PUSH1 0x1 DUP3 DUP2 SHR SWAP3 AND DUP1 ISZERO PUSH2 0x2A8E JUMPI JUMPDEST PUSH1 0x20 DUP4 LT EQ PUSH2 0x2A7A JUMPI JUMP JUMPDEST PUSH4 0x4E487B71 PUSH1 0xE0 SHL PUSH0 MSTORE PUSH1 0x22 PUSH1 0x4 MSTORE PUSH1 0x24 PUSH0 REVERT JUMPDEST SWAP2 PUSH1 0x7F AND SWAP2 PUSH2 0x2A6F JUMP JUMPDEST PUSH1 0xE0 DUP2 ADD SWAP1 DUP2 LT PUSH1 0x1 PUSH1 0x1 PUSH1 0x40 SHL SUB DUP3 GT OR PUSH2 0xA2D JUMPI PUSH1 0x40 MSTORE JUMP JUMPDEST PUSH2 0x1E0 DUP2 ADD SWAP1 DUP2 LT PUSH1 0x1 PUSH1 0x1 PUSH1 0x40 SHL SUB DUP3 GT OR PUSH2 0xA2D JUMPI PUSH1 0x40 MSTORE JUMP JUMPDEST PUSH1 0xA0 DUP2 ADD SWAP1 DUP2 LT PUSH1 0x1 PUSH1 0x1 PUSH1 0x40 SHL SUB DUP3 GT OR PUSH2 0xA2D JUMPI PUSH1 0x40 MSTORE JUMP JUMPDEST PUSH1 0x20 DUP2 ADD SWAP1 DUP2 LT PUSH1 0x1 PUSH1 0x1 PUSH1 0x40 SHL SUB DUP3 GT OR PUSH2 0xA2D JUMPI PUSH1 0x40 MSTORE JUMP JUMPDEST SWAP1 PUSH1 0x1F DUP1 NOT SWAP2 ADD AND DUP2 ADD SWAP1 DUP2 LT PUSH1 0x1 PUSH1 0x1 PUSH1 0x40 SHL SUB DUP3 GT OR PUSH2 0xA2D JUMPI PUSH1 0x40 MSTORE JUMP JUMPDEST SWAP1 PUSH1 0x40 MLOAD SWAP2 DUP3 PUSH0 DUP3 SLOAD SWAP3 PUSH2 0x2B39 DUP5 PUSH2 0x2A60 JUMP JUMPDEST SWAP1 DUP2 DUP5 MSTORE PUSH1 0x1 SWAP5 DUP6 DUP2 AND SWAP1 DUP2 PUSH0 EQ PUSH2 0x2BA4 JUMPI POP PUSH1 0x1 EQ PUSH2 0x2B64 JUMPI JUMPDEST POP POP PUSH2 0x2B62 SWAP3 POP SUB DUP4 PUSH2 0x2B05 JUMP JUMPDEST JUMP JUMPDEST SWAP1 SWAP4 SWAP2 POP PUSH0 MSTORE PUSH1 0x20 SWAP1 DUP2 PUSH0 KECCAK256 SWAP4 PUSH0 SWAP2 JUMPDEST DUP2 DUP4 LT PUSH2 0x2B8C JUMPI POP POP PUSH2 0x2B62 SWAP4 POP DUP3 ADD ADD PUSH0 DUP1 PUSH2 0x2B54 JUMP JUMPDEST DUP6 SLOAD DUP9 DUP5 ADD DUP6 ADD MSTORE SWAP5 DUP6 ADD SWAP5 DUP8 SWAP5 POP SWAP2 DUP4 ADD SWAP2 PUSH2 0x2B74 JUMP JUMPDEST SWAP2 POP POP PUSH2 0x2B62 SWAP5 POP PUSH1 0x20 SWAP3 POP PUSH1 0xFF NOT AND DUP3 DUP5 ADD MSTORE ISZERO ISZERO PUSH1 0x5 SHL DUP3 ADD ADD PUSH0 DUP1 PUSH2 0x2B54 JUMP JUMPDEST PUSH1 0x1 PUSH1 0x1 PUSH1 0x40 SHL SUB DUP2 GT PUSH2 0xA2D JUMPI PUSH1 0x1F ADD PUSH1 0x1F NOT AND PUSH1 0x20 ADD SWAP1 JUMP JUMPDEST SWAP3 SWAP2 SWAP3 PUSH2 0x2BEE DUP3 PUSH2 0x2BC7 JUMP JUMPDEST SWAP2 PUSH2 0x2BFC PUSH1 0x40 MLOAD SWAP4 DUP5 PUSH2 0x2B05 JUMP JUMPDEST DUP3 SWAP5 DUP2 DUP5 MSTORE DUP2 DUP4 ADD GT PUSH2 0x1FB JUMPI DUP3 DUP2 PUSH1 0x20 SWAP4 DUP5 PUSH0 SWAP7 ADD CALLDATACOPY ADD ADD MSTORE JUMP JUMPDEST SWAP1 DUP1 PUSH1 0x1F DUP4 ADD SLT ISZERO PUSH2 0x1FB JUMPI DUP2 PUSH1 0x20 PUSH2 0x2C33 SWAP4 CALLDATALOAD SWAP2 ADD PUSH2 0x2BE2 JUMP JUMPDEST SWAP1 JUMP JUMPDEST PUSH1 0x40 SWAP1 PUSH1 0x3 NOT ADD SLT PUSH2 0x1FB JUMPI PUSH1 0x4 CALLDATALOAD PUSH1 0x1 PUSH1 0x1 PUSH1 0xA0 SHL SUB DUP2 AND DUP2 SUB PUSH2 0x1FB JUMPI SWAP1 PUSH1 0x24 CALLDATALOAD DUP1 ISZERO ISZERO DUP2 SUB PUSH2 0x1FB JUMPI SWAP1 JUMP JUMPDEST PUSH1 0x6 SLOAD PUSH1 0x1 PUSH1 0x1 PUSH1 0xA0 SHL SUB AND CALLER SUB PUSH2 0x2C79 JUMPI JUMP JUMPDEST PUSH1 0x40 MLOAD PUSH4 0x118CDAA7 PUSH1 0xE0 SHL DUP2 MSTORE CALLER PUSH1 0x4 DUP3 ADD MSTORE PUSH1 0x24 SWAP1 REVERT JUMPDEST PUSH1 0x1 PUSH1 0x1 PUSH1 0xA0 SHL SUB SWAP2 DUP3 AND SWAP3 SWAP1 SWAP2 DUP4 ISZERO PUSH2 0xBD1 JUMPI PUSH0 SWAP3 DUP3 DUP5 MSTORE PUSH1 0x20 SWAP5 PUSH1 0x2 DUP7 MSTORE PUSH1 0x40 SWAP6 DUP4 DUP8 DUP8 KECCAK256 SLOAD AND PUSH2 0x2E2A JUMPI SWAP1 DUP5 SWAP2 DUP3 DUP8 MSTORE PUSH1 0x2 DUP2 MSTORE DUP5 DUP9 DUP9 KECCAK256 SLOAD AND SWAP7 DUP8 SWAP2 CALLER ISZERO ISZERO DUP1 PUSH2 0x2D91 JUMPI JUMPDEST POP SWAP1 PUSH1 0x2 PUSH32 0xDDF252AD1BE2C89B69C2B068FC378DAA952BA7F163C4A11628F55A4DF523B3EF SWAP3 DUP5 PUSH2 0x2D60 JUMPI JUMPDEST DUP6 DUP4 MSTORE PUSH1 0x3 DUP2 MSTORE DUP12 DUP4 KECCAK256 DUP1 SLOAD PUSH1 0x1 ADD SWAP1 SSTORE DUP7 DUP4 MSTORE MSTORE DUP10 DUP2 KECCAK256 DUP1 SLOAD PUSH1 0x1 PUSH1 0x1 PUSH1 0xA0 SHL SUB NOT AND DUP6 OR SWAP1 SSTORE DUP1 LOG4 AND SWAP3 DUP4 DUP4 SUB PUSH2 0x2D3F JUMPI POP POP POP POP JUMP JUMPDEST PUSH1 0x64 SWAP5 POP MLOAD SWAP3 PUSH4 0x64283D7B PUSH1 0xE0 SHL DUP5 MSTORE PUSH1 0x4 DUP5 ADD MSTORE PUSH1 0x24 DUP4 ADD MSTORE PUSH1 0x44 DUP3 ADD MSTORE REVERT JUMPDEST PUSH0 DUP8 DUP2 MSTORE PUSH1 0x4 PUSH1 0x20 MSTORE PUSH1 0x40 SWAP1 KECCAK256 DUP1 SLOAD PUSH1 0x1 PUSH1 0x1 PUSH1 0xA0 SHL SUB NOT AND SWAP1 SSTORE DUP5 DUP4 MSTORE PUSH1 0x3 DUP2 MSTORE DUP12 DUP4 KECCAK256 DUP1 SLOAD PUSH0 NOT ADD SWAP1 SSTORE PUSH2 0x2D06 JUMP JUMPDEST SWAP2 SWAP4 SWAP5 POP SWAP2 POP DUP1 PUSH2 0x2DE9 JUMPI JUMPDEST ISZERO PUSH2 0x2DAD JUMPI DUP6 SWAP3 SWAP2 DUP8 SWAP2 PUSH0 PUSH2 0x2CDA JUMP JUMPDEST DUP8 DUP7 DUP9 PUSH2 0x2DCA JUMPI PUSH1 0x24 SWAP2 MLOAD SWAP1 PUSH4 0x7E273289 PUSH1 0xE0 SHL DUP3 MSTORE PUSH1 0x4 DUP3 ADD MSTORE REVERT JUMPDEST SWAP1 MLOAD PUSH4 0x177E802F PUSH1 0xE0 SHL DUP2 MSTORE CALLER PUSH1 0x4 DUP3 ADD MSTORE PUSH1 0x24 DUP2 ADD SWAP2 SWAP1 SWAP2 MSTORE PUSH1 0x44 SWAP1 REVERT JUMPDEST POP CALLER DUP8 EQ DUP1 ISZERO PUSH2 0x2E0E JUMPI JUMPDEST DUP1 PUSH2 0x2D9D JUMPI POP DUP6 DUP3 MSTORE PUSH1 0x4 DUP2 MSTORE CALLER DUP6 DUP10 DUP5 KECCAK256 SLOAD AND EQ PUSH2 0x2D9D JUMP JUMPDEST POP DUP7 DUP3 MSTORE PUSH1 0x5 DUP2 MSTORE DUP8 DUP3 KECCAK256 CALLER DUP4 MSTORE DUP2 MSTORE PUSH1 0xFF DUP9 DUP4 KECCAK256 SLOAD AND PUSH2 0x2DF4 JUMP JUMPDEST PUSH1 0x64 SWAP1 DUP8 MLOAD SWAP1 PUSH3 0x461BCD PUSH1 0xE5 SHL DUP3 MSTORE PUSH1 0x4 DUP3 ADD MSTORE PUSH1 0x1F PUSH1 0x24 DUP3 ADD MSTORE PUSH32 0x536F756C626F756E643A205472616E73666572206E6F7420616C6C6F77656400 PUSH1 0x44 DUP3 ADD MSTORE REVERT JUMPDEST PUSH0 DUP2 DUP2 MSTORE PUSH1 0x2 PUSH1 0x20 MSTORE PUSH1 0x40 SWAP1 KECCAK256 SLOAD PUSH1 0x1 PUSH1 0x1 PUSH1 0xA0 SHL SUB AND SWAP1 DUP2 ISZERO PUSH2 0x2E8F JUMPI POP SWAP1 JUMP JUMPDEST PUSH1 0x24 SWAP1 PUSH1 0x40 MLOAD SWAP1 PUSH4 0x7E273289 PUSH1 0xE0 SHL DUP3 MSTORE PUSH1 0x4 DUP3 ADD MSTORE REVERT JUMPDEST RETURNDATASIZE ISZERO PUSH2 0x2ED1 JUMPI RETURNDATASIZE SWAP1 PUSH2 0x2EB8 DUP3 PUSH2 0x2BC7 JUMP JUMPDEST SWAP2 PUSH2 0x2EC6 PUSH1 0x40 MLOAD SWAP4 DUP5 PUSH2 0x2B05 JUMP JUMPDEST DUP3 MSTORE RETURNDATASIZE PUSH0 PUSH1 0x20 DUP5 ADD RETURNDATACOPY JUMP JUMPDEST PUSH1 0x60 SWAP1 JUMP JUMPDEST SWAP3 SWAP4 DUP3 EXTCODESIZE PUSH2 0x2EE6 JUMPI JUMPDEST POP POP POP POP POP JUMP JUMPDEST PUSH2 0x2F2A SWAP1 PUSH1 0x1 DUP1 PUSH1 0xA0 SHL SUB DUP1 SWAP5 AND SWAP6 PUSH1 0x40 MLOAD SWAP5 DUP6 SWAP5 DUP2 PUSH4 0xA85BD01 PUSH1 0xE1 SHL SWAP9 DUP10 DUP9 MSTORE AND PUSH1 0x4 DUP8 ADD MSTORE AND PUSH1 0x24 DUP6 ADD MSTORE PUSH1 0x44 DUP5 ADD MSTORE PUSH1 0x80 PUSH1 0x64 DUP5 ADD MSTORE PUSH1 0x84 DUP4 ADD SWAP1 PUSH2 0x2957 JUMP JUMPDEST SUB SWAP1 PUSH1 0x20 DUP2 PUSH0 SWAP4 DUP2 DUP6 DUP9 GAS CALL SWAP1 DUP3 SWAP1 DUP3 PUSH2 0x2FA9 JUMPI JUMPDEST POP POP PUSH2 0x2F77 JUMPI DUP3 PUSH2 0x2F4E PUSH2 0x2EA7 JUMP JUMPDEST DUP1 MLOAD SWAP2 SWAP1 DUP3 PUSH2 0x2F70 JUMPI PUSH1 0x40 MLOAD PUSH4 0x32505749 PUSH1 0xE1 SHL DUP2 MSTORE PUSH1 0x4 DUP2 ADD DUP4 SWAP1 MSTORE PUSH1 0x24 SWAP1 REVERT JUMPDEST PUSH1 0x20 SWAP2 POP ADD REVERT JUMPDEST PUSH1 0x1 PUSH1 0x1 PUSH1 0xE0 SHL SUB NOT AND SUB PUSH2 0x2F91 JUMPI POP PUSH0 DUP1 DUP1 DUP1 DUP1 PUSH2 0x2EDF JUMP JUMPDEST PUSH1 0x24 SWAP1 PUSH1 0x40 MLOAD SWAP1 PUSH4 0x32505749 PUSH1 0xE1 SHL DUP3 MSTORE PUSH1 0x4 DUP3 ADD MSTORE REVERT JUMPDEST SWAP1 SWAP2 SWAP3 POP PUSH1 0x20 DUP2 RETURNDATASIZE DUP3 GT PUSH2 0x2FF0 JUMPI JUMPDEST DUP2 PUSH2 0x2FC5 PUSH1 0x20 SWAP4 DUP4 PUSH2 0x2B05 JUMP JUMPDEST DUP2 ADD SUB SLT PUSH2 0x2FEC JUMPI MLOAD SWAP1 PUSH1 0x1 PUSH1 0x1 PUSH1 0xE0 SHL SUB NOT DUP3 AND DUP3 SUB PUSH2 0x2FE9 JUMPI POP SWAP1 PUSH0 DUP1 PUSH2 0x2F3F JUMP JUMPDEST DUP1 REVERT JUMPDEST POP DUP1 REVERT JUMPDEST RETURNDATASIZE SWAP2 POP PUSH2 0x2FB8 JUMP JUMPDEST ISZERO PUSH2 0x2FFF JUMPI JUMP JUMPDEST PUSH1 0x40 MLOAD PUSH3 0x461BCD PUSH1 0xE5 SHL DUP2 MSTORE PUSH1 0x20 PUSH1 0x4 DUP3 ADD MSTORE PUSH1 0x14 PUSH1 0x24 DUP3 ADD MSTORE PUSH20 0x139BDD08185D5D1A1BDC9A5E9959081859D95B9D PUSH1 0x62 SHL PUSH1 0x44 DUP3 ADD MSTORE PUSH1 0x64 SWAP1 REVERT JUMPDEST PUSH0 NOT DUP2 EQ PUSH2 0x57E JUMPI PUSH1 0x1 ADD SWAP1 JUMP JUMPDEST SWAP2 SWAP1 DUP3 ADD DUP1 SWAP3 GT PUSH2 0x57E JUMPI JUMP JUMPDEST PUSH1 0x4 DUP3 LT ISZERO PUSH2 0x17D9 JUMPI MSTORE JUMP JUMPDEST ISZERO PUSH2 0x3069 JUMPI JUMP JUMPDEST PUSH1 0x40 MLOAD PUSH3 0x461BCD PUSH1 0xE5 SHL DUP2 MSTORE PUSH1 0x20 PUSH1 0x4 DUP3 ADD MSTORE PUSH1 0x10 PUSH1 0x24 DUP3 ADD MSTORE PUSH16 0x5175657374206E6F7420616374697665 PUSH1 0x80 SHL PUSH1 0x44 DUP3 ADD MSTORE PUSH1 0x64 SWAP1 REVERT JUMPDEST ISZERO PUSH2 0x30A8 JUMPI JUMP JUMPDEST PUSH1 0x40 MLOAD PUSH3 0x461BCD PUSH1 0xE5 SHL DUP2 MSTORE PUSH1 0x20 PUSH1 0x4 DUP3 ADD MSTORE PUSH1 0x11 PUSH1 0x24 DUP3 ADD MSTORE PUSH17 0x145D595CDD081B9BDD081CDD185C9D1959 PUSH1 0x7A SHL PUSH1 0x44 DUP3 ADD MSTORE PUSH1 0x64 SWAP1 REVERT JUMPDEST ISZERO PUSH2 0x30E8 JUMPI JUMP JUMPDEST PUSH1 0x40 MLOAD PUSH3 0x461BCD PUSH1 0xE5 SHL DUP2 MSTORE PUSH1 0x20 PUSH1 0x4 DUP3 ADD MSTORE PUSH1 0xD PUSH1 0x24 DUP3 ADD MSTORE PUSH13 0x145D595CDD08195E1C1A5C9959 PUSH1 0x9A SHL PUSH1 0x44 DUP3 ADD MSTORE PUSH1 0x64 SWAP1 REVERT JUMPDEST ISZERO PUSH2 0x3124 JUMPI JUMP JUMPDEST PUSH1 0x40 MLOAD PUSH3 0x461BCD PUSH1 0xE5 SHL DUP2 MSTORE PUSH1 0x20 PUSH1 0x4 DUP3 ADD MSTORE PUSH1 0x19 PUSH1 0x24 DUP3 ADD MSTORE PUSH32 0x517565737420636F6D706C65746564206D61782074696D657300000000000000 PUSH1 0x44 DUP3 ADD MSTORE PUSH1 0x64 SWAP1 REVERT JUMPDEST PUSH1 0xF SLOAD PUSH1 0x1 PUSH1 0x40 SHL DUP2 LT ISZERO PUSH2 0xA2D JUMPI DUP1 PUSH1 0x1 PUSH2 0x3188 SWAP3 ADD PUSH1 0xF SSTORE PUSH2 0x29E1 JUMP JUMPDEST DUP2 SWAP3 SWAP2 SLOAD SWAP1 PUSH1 0x3 SHL SWAP2 PUSH1 0x1 DUP1 PUSH1 0xA0 SHL SUB DUP1 SWAP2 AND DUP4 SHL SWAP3 SHL NOT AND OR SWAP1 SSTORE JUMP JUMPDEST SWAP2 SWAP1 DUP3 SUB SWAP2 DUP3 GT PUSH2 0x57E JUMPI JUMP JUMPDEST SWAP2 SWAP1 DUP2 LT ISZERO PUSH2 0xA41 JUMPI PUSH1 0x5 SHL ADD SWAP1 JUMP JUMPDEST CALLDATALOAD PUSH1 0x1 PUSH1 0x1 PUSH1 0xA0 SHL SUB DUP2 AND DUP2 SUB PUSH2 0x1FB JUMPI SWAP1 JUMP JUMPDEST SWAP1 DUP2 PUSH1 0x20 SWAP2 SUB SLT PUSH2 0x1FB JUMPI MLOAD DUP1 ISZERO ISZERO DUP2 SUB PUSH2 0x1FB JUMPI SWAP1 JUMP JUMPDEST DUP1 PUSH0 SWAP2 PUSH27 0x184F03E93FF9F4DAA797ED6E38ED64BF6A1F010000000000000000 DUP1 DUP3 LT ISZERO PUSH2 0x3347 JUMPI JUMPDEST POP PUSH14 0x4EE2D6D415B85ACEF8100000000 DUP1 DUP4 LT ISZERO PUSH2 0x3338 JUMPI JUMPDEST POP PUSH7 0x2386F26FC10000 DUP1 DUP4 LT ISZERO PUSH2 0x3329 JUMPI JUMPDEST POP PUSH4 0x5F5E100 DUP1 DUP4 LT ISZERO PUSH2 0x331A JUMPI JUMPDEST POP PUSH2 0x2710 DUP1 DUP4 LT ISZERO PUSH2 0x330B JUMPI JUMPDEST POP PUSH1 0x64 DUP3 LT ISZERO PUSH2 0x32FB JUMPI JUMPDEST PUSH1 0xA DUP1 SWAP3 LT ISZERO PUSH2 0x32F1 JUMPI JUMPDEST PUSH1 0x1 SWAP1 DUP2 PUSH1 0x21 DUP2 DUP7 ADD SWAP6 PUSH2 0x3287 DUP8 PUSH2 0x2BC7 JUMP JUMPDEST SWAP7 PUSH2 0x3295 PUSH1 0x40 MLOAD SWAP9 DUP10 PUSH2 0x2B05 JUMP JUMPDEST DUP1 DUP9 MSTORE PUSH2 0x32A4 PUSH1 0x1F NOT SWAP2 PUSH2 0x2BC7 JUMP JUMPDEST ADD CALLDATASIZE PUSH1 0x20 DUP10 ADD CALLDATACOPY DUP7 ADD ADD SWAP1 JUMPDEST PUSH2 0x32BC JUMPI JUMPDEST POP POP POP POP SWAP1 JUMP JUMPDEST PUSH0 NOT ADD SWAP1 DUP4 SWAP1 PUSH16 0x181899199A1A9B1B9C1CB0B131B232B3 PUSH1 0x81 SHL DUP3 DUP3 MOD BYTE DUP4 MSTORE8 DIV SWAP2 DUP3 ISZERO PUSH2 0x32EC JUMPI SWAP2 SWAP1 DUP3 PUSH2 0x32B0 JUMP JUMPDEST PUSH2 0x32B5 JUMP JUMPDEST SWAP2 PUSH1 0x1 ADD SWAP2 PUSH2 0x3274 JUMP JUMPDEST SWAP2 SWAP1 PUSH1 0x64 PUSH1 0x2 SWAP2 DIV SWAP2 ADD SWAP2 PUSH2 0x3269 JUMP JUMPDEST PUSH1 0x4 SWAP2 SWAP4 SWAP3 DIV SWAP2 ADD SWAP2 PUSH0 PUSH2 0x325E JUMP JUMPDEST PUSH1 0x8 SWAP2 SWAP4 SWAP3 DIV SWAP2 ADD SWAP2 PUSH0 PUSH2 0x3251 JUMP JUMPDEST PUSH1 0x10 SWAP2 SWAP4 SWAP3 DIV SWAP2 ADD SWAP2 PUSH0 PUSH2 0x3242 JUMP JUMPDEST PUSH1 0x20 SWAP2 SWAP4 SWAP3 DIV SWAP2 ADD SWAP2 PUSH0 PUSH2 0x3230 JUMP JUMPDEST PUSH1 0x40 SWAP4 POP DUP2 DIV SWAP2 POP PUSH0 PUSH2 0x3217 JUMP JUMPDEST SWAP1 PUSH1 0x40 MLOAD SWAP2 DUP3 DUP2 SLOAD SWAP2 DUP3 DUP3 MSTORE PUSH1 0x20 SWAP3 DUP4 DUP4 ADD SWAP2 PUSH0 MSTORE DUP4 PUSH0 KECCAK256 SWAP4 PUSH0 SWAP1 JUMPDEST DUP3 DUP3 LT PUSH2 0x3387 JUMPI POP POP POP PUSH2 0x2B62 SWAP3 POP SUB DUP4 PUSH2 0x2B05 JUMP JUMPDEST DUP6 SLOAD DUP5 MSTORE PUSH1 0x1 SWAP6 DUP7 ADD SWAP6 DUP9 SWAP6 POP SWAP4 DUP2 ADD SWAP4 SWAP1 SWAP2 ADD SWAP1 PUSH2 0x3371 JUMP JUMPDEST PUSH1 0x1 PUSH1 0x1 PUSH1 0x40 SHL SUB DUP2 GT PUSH2 0xA2D JUMPI PUSH1 0x5 SHL PUSH1 0x20 ADD SWAP1 JUMP JUMPDEST SWAP1 PUSH2 0x33C2 DUP3 PUSH2 0x33A1 JUMP JUMPDEST PUSH2 0x33CF PUSH1 0x40 MLOAD SWAP2 DUP3 PUSH2 0x2B05 JUMP JUMPDEST DUP3 DUP2 MSTORE DUP1 SWAP3 PUSH2 0x33E0 PUSH1 0x1F NOT SWAP2 PUSH2 0x33A1 JUMP JUMPDEST ADD SWAP1 PUSH1 0x20 CALLDATASIZE SWAP2 ADD CALLDATACOPY JUMP JUMPDEST DUP1 MLOAD DUP3 LT ISZERO PUSH2 0xA41 JUMPI PUSH1 0x20 SWAP2 PUSH1 0x5 SHL ADD ADD SWAP1 JUMP INVALID LOG2 PUSH5 0x6970667358 0x22 SLT KECCAK256 0xDB 0xDA LOG2 DUP4 PUSH6 0x71D3E9F0E7E5 PUSH6 0xF9B55F61F9F8 0xB4 PUSH14 0xC3F675BE2D2CA3B1EC7555806473 PUSH16 0x6C634300081400330000000000000000 "},"methodIdentifiers":{"agents(address)":"fd66091e","approve(address,uint256)":"095ea7b3","balanceOf(address)":"70a08231","batchRecordCompletions(uint256,address[],bytes32[])":"0d1e1634","claimReward(uint256)":"ae169a50","completions(uint256,address)":"5027e789","createQuest(string,string,string,address,uint8,uint8,uint8,uint256,address,uint256,uint256)":"97840b3e","deactivateQuest(uint256)":"e9d2821d","fundContract()":"bd097e21","getApproved(uint256)":"081812fc","getContractStats()":"dfe6b5d6","getLeaderboard(uint256)":"a34b46fe","getQuest(uint256)":"49f86f34","getUserBadges(address)":"37c245fe","getUserCompletion(uint256,address)":"33eb7959","getUserStats(address)":"4e43603a","hasCompletedQuest(uint256,address)":"9c4e0dce","isApprovedForAll(address,address)":"e985e9c5","name()":"06fdde03","owner()":"8da5cb5b","ownerOf(uint256)":"6352211e","participants(uint256)":"35c1d349","quests(uint256)":"e085f980","recordCompletion(uint256,address,bytes32)":"9948d16b","renounceOwnership()":"715018a6","safeTransferFrom(address,address,uint256)":"42842e0e","safeTransferFrom(address,address,uint256,bytes)":"b88d4fde","setAgent(address,bool)":"97d8c676","setApprovalForAll(address,bool)":"a22cb465","supportsInterface(bytes4)":"01ffc9a7","symbol()":"95d89b41","tokenURI(uint256)":"c87b56dd","tokenURIs(uint256)":"6c8b703f","transferFrom(address,address,uint256)":"23b872dd","transferOwnership(address)":"f2fde38b","userStats(address)":"8a65d874","withdrawETH(uint256)":"f14210a6","withdrawTokens(address,uint256)":"06b091f9"}}}}}